{
  "_format": "hh-sol-artifact-1",
  "contractName": "ZNFTShares",
  "sourceName": "contracts/BEP20.sol",
  "abi": [
    {
      "inputs": [
        {
          "internalType": "string",
          "name": "name_",
          "type": "string"
        },
        {
          "internalType": "string",
          "name": "symbol_",
          "type": "string"
        }
      ],
      "stateMutability": "nonpayable",
      "type": "constructor"
    },
    {
      "anonymous": false,
      "inputs": [
        {
          "indexed": true,
          "internalType": "address",
          "name": "owner",
          "type": "address"
        },
        {
          "indexed": true,
          "internalType": "address",
          "name": "spender",
          "type": "address"
        },
        {
          "indexed": false,
          "internalType": "uint256",
          "name": "value",
          "type": "uint256"
        }
      ],
      "name": "Approval",
      "type": "event"
    },
    {
      "anonymous": false,
      "inputs": [
        {
          "indexed": true,
          "internalType": "address",
          "name": "from",
          "type": "address"
        },
        {
          "indexed": true,
          "internalType": "address",
          "name": "to",
          "type": "address"
        },
        {
          "indexed": false,
          "internalType": "uint256",
          "name": "value",
          "type": "uint256"
        }
      ],
      "name": "Transfer",
      "type": "event"
    },
    {
      "inputs": [
        {
          "internalType": "address",
          "name": "owner",
          "type": "address"
        },
        {
          "internalType": "address",
          "name": "spender",
          "type": "address"
        }
      ],
      "name": "allowance",
      "outputs": [
        {
          "internalType": "uint256",
          "name": "",
          "type": "uint256"
        }
      ],
      "stateMutability": "view",
      "type": "function"
    },
    {
      "inputs": [
        {
          "internalType": "address",
          "name": "spender",
          "type": "address"
        },
        {
          "internalType": "uint256",
          "name": "value",
          "type": "uint256"
        }
      ],
      "name": "approve",
      "outputs": [
        {
          "internalType": "bool",
          "name": "",
          "type": "bool"
        }
      ],
      "stateMutability": "nonpayable",
      "type": "function"
    },
    {
      "inputs": [
        {
          "internalType": "address",
          "name": "account",
          "type": "address"
        }
      ],
      "name": "balanceOf",
      "outputs": [
        {
          "internalType": "uint256",
          "name": "",
          "type": "uint256"
        }
      ],
      "stateMutability": "view",
      "type": "function"
    },
    {
      "inputs": [
        {
          "internalType": "uint256",
          "name": "amount",
          "type": "uint256"
        }
      ],
      "name": "burn",
      "outputs": [
        {
          "internalType": "bool",
          "name": "",
          "type": "bool"
        }
      ],
      "stateMutability": "nonpayable",
      "type": "function"
    },
    {
      "inputs": [],
      "name": "decimals",
      "outputs": [
        {
          "internalType": "uint8",
          "name": "",
          "type": "uint8"
        }
      ],
      "stateMutability": "view",
      "type": "function"
    },
    {
      "inputs": [
        {
          "internalType": "address",
          "name": "spender",
          "type": "address"
        },
        {
          "internalType": "uint256",
          "name": "reducedValue",
          "type": "uint256"
        }
      ],
      "name": "decreaseAllowance",
      "outputs": [
        {
          "internalType": "bool",
          "name": "",
          "type": "bool"
        }
      ],
      "stateMutability": "nonpayable",
      "type": "function"
    },
    {
      "inputs": [],
      "name": "governor",
      "outputs": [
        {
          "internalType": "address",
          "name": "",
          "type": "address"
        }
      ],
      "stateMutability": "view",
      "type": "function"
    },
    {
      "inputs": [
        {
          "internalType": "address",
          "name": "spender",
          "type": "address"
        },
        {
          "internalType": "uint256",
          "name": "addedValue",
          "type": "uint256"
        }
      ],
      "name": "increaseAllowance",
      "outputs": [
        {
          "internalType": "bool",
          "name": "",
          "type": "bool"
        }
      ],
      "stateMutability": "nonpayable",
      "type": "function"
    },
    {
      "inputs": [
        {
          "internalType": "address",
          "name": "recipient",
          "type": "address"
        },
        {
          "internalType": "uint256",
          "name": "amount",
          "type": "uint256"
        }
      ],
      "name": "mint",
      "outputs": [
        {
          "internalType": "bool",
          "name": "",
          "type": "bool"
        }
      ],
      "stateMutability": "nonpayable",
      "type": "function"
    },
    {
      "inputs": [],
      "name": "name",
      "outputs": [
        {
          "internalType": "string",
          "name": "",
          "type": "string"
        }
      ],
      "stateMutability": "view",
      "type": "function"
    },
    {
      "inputs": [],
      "name": "symbol",
      "outputs": [
        {
          "internalType": "string",
          "name": "",
          "type": "string"
        }
      ],
      "stateMutability": "view",
      "type": "function"
    },
    {
      "inputs": [],
      "name": "totalSupply",
      "outputs": [
        {
          "internalType": "uint256",
          "name": "",
          "type": "uint256"
        }
      ],
      "stateMutability": "view",
      "type": "function"
    },
    {
      "inputs": [
        {
          "internalType": "address",
          "name": "recipient",
          "type": "address"
        },
        {
          "internalType": "uint256",
          "name": "amount",
          "type": "uint256"
        }
      ],
      "name": "transfer",
      "outputs": [
        {
          "internalType": "bool",
          "name": "",
          "type": "bool"
        }
      ],
      "stateMutability": "nonpayable",
      "type": "function"
    },
    {
      "inputs": [
        {
          "internalType": "address",
          "name": "sender",
          "type": "address"
        },
        {
          "internalType": "address",
          "name": "recipient",
          "type": "address"
        },
        {
          "internalType": "uint256",
          "name": "amount",
          "type": "uint256"
        }
      ],
      "name": "transferFrom",
      "outputs": [
        {
          "internalType": "bool",
          "name": "",
          "type": "bool"
        }
      ],
      "stateMutability": "nonpayable",
      "type": "function"
    },
    {
      "inputs": [
        {
          "internalType": "address",
          "name": "newGovernor",
          "type": "address"
        }
      ],
      "name": "transferGovernance",
      "outputs": [
        {
          "internalType": "bool",
          "name": "",
          "type": "bool"
        }
      ],
      "stateMutability": "nonpayable",
      "type": "function"
    }
  ],
  "bytecode": "0x60806040523480156200001157600080fd5b5060405162001f8438038062001f848339818101604052810190620000379190620001eb565b81600490805190602001906200004f929190620000c9565b50806005908051906020019062000068929190620000c9565b5062000079620000c160201b60201c565b600260006101000a81548173ffffffffffffffffffffffffffffffffffffffff021916908373ffffffffffffffffffffffffffffffffffffffff1602179055505050620003ce565b600033905090565b828054620000d790620002f3565b90600052602060002090601f016020900481019282620000fb576000855562000147565b82601f106200011657805160ff191683800117855562000147565b8280016001018555821562000147579182015b828111156200014657825182559160200191906001019062000129565b5b5090506200015691906200015a565b5090565b5b80821115620001755760008160009055506001016200015b565b5090565b6000620001906200018a8462000287565b6200025e565b905082815260208101848484011115620001a957600080fd5b620001b6848285620002bd565b509392505050565b600082601f830112620001d057600080fd5b8151620001e284826020860162000179565b91505092915050565b60008060408385031215620001ff57600080fd5b600083015167ffffffffffffffff8111156200021a57600080fd5b6200022885828601620001be565b925050602083015167ffffffffffffffff8111156200024657600080fd5b6200025485828601620001be565b9150509250929050565b60006200026a6200027d565b905062000278828262000329565b919050565b6000604051905090565b600067ffffffffffffffff821115620002a557620002a46200038e565b5b620002b082620003bd565b9050602081019050919050565b60005b83811015620002dd578082015181840152602081019050620002c0565b83811115620002ed576000848401525b50505050565b600060028204905060018216806200030c57607f821691505b602082108114156200032357620003226200035f565b5b50919050565b6200033482620003bd565b810181811067ffffffffffffffff821117156200035657620003556200038e565b5b80604052505050565b7f4e487b7100000000000000000000000000000000000000000000000000000000600052602260045260246000fd5b7f4e487b7100000000000000000000000000000000000000000000000000000000600052604160045260246000fd5b6000601f19601f8301169050919050565b611ba680620003de6000396000f3fe608060405234801561001057600080fd5b50600436106100f55760003560e01c806340c10f1911610097578063a457c2d711610066578063a457c2d7146102b0578063a9059cbb146102e0578063d38bfff414610310578063dd62ed3e14610340576100f5565b806340c10f191461020257806342966c681461023257806370a082311461026257806395d89b4114610292576100f5565b806318160ddd116100d357806318160ddd1461016657806323b872dd14610184578063313ce567146101b457806339509351146101d2576100f5565b806306fdde03146100fa578063095ea7b3146101185780630c340a2414610148575b600080fd5b610102610370565b60405161010f919061153a565b60405180910390f35b610132600480360381019061012d91906112a9565b610402565b60405161013f919061151f565b60405180910390f35b610150610420565b60405161015d9190611504565b60405180910390f35b61016e61044a565b60405161017b91906116bc565b60405180910390f35b61019e6004803603810190610199919061125a565b610454565b6040516101ab919061151f565b60405180910390f35b6101bc610555565b6040516101c991906116d7565b60405180910390f35b6101ec60048036038101906101e791906112a9565b61055e565b6040516101f9919061151f565b60405180910390f35b61021c600480360381019061021791906112a9565b61060a565b604051610229919061151f565b60405180910390f35b61024c600480360381019061024791906112e5565b6107fd565b604051610259919061151f565b60405180910390f35b61027c600480360381019061027791906111f5565b6109ae565b60405161028991906116bc565b60405180910390f35b61029a6109f6565b6040516102a7919061153a565b60405180910390f35b6102ca60048036038101906102c591906112a9565b610a88565b6040516102d7919061151f565b60405180910390f35b6102fa60048036038101906102f591906112a9565b610b7c565b604051610307919061151f565b60405180910390f35b61032a600480360381019061032591906111f5565b610b9a565b604051610337919061151f565b60405180910390f35b61035a6004803603810190610355919061121e565b610ced565b60405161036791906116bc565b60405180910390f35b60606004805461037f90611820565b80601f01602080910402602001604051908101604052809291908181526020018280546103ab90611820565b80156103f85780601f106103cd576101008083540402835291602001916103f8565b820191906000526020600020905b8154815290600101906020018083116103db57829003601f168201915b5050505050905090565b600061041661040f610d74565b8484610d7c565b6001905092915050565b6000600260009054906101000a900473ffffffffffffffffffffffffffffffffffffffff16905090565b6000600354905090565b6000610461848484610f47565b6000600160008673ffffffffffffffffffffffffffffffffffffffff1673ffffffffffffffffffffffffffffffffffffffff16815260200190815260200160002060006104ac610d74565b73ffffffffffffffffffffffffffffffffffffffff1673ffffffffffffffffffffffffffffffffffffffff1681526020019081526020016000205490508281101561052c576040517f08c379a00000000000000000000000000000000000000000000000000000000081526004016105239061165c565b60405180910390fd5b61054985610538610d74565b85846105449190611764565b610d7c565b60019150509392505050565b60006012905090565b600061060061056b610d74565b848460016000610579610d74565b73ffffffffffffffffffffffffffffffffffffffff1673ffffffffffffffffffffffffffffffffffffffff16815260200190815260200160002060008873ffffffffffffffffffffffffffffffffffffffff1673ffffffffffffffffffffffffffffffffffffffff168152602001908152602001600020546105fb919061170e565b610d7c565b6001905092915050565b6000600260009054906101000a900473ffffffffffffffffffffffffffffffffffffffff1673ffffffffffffffffffffffffffffffffffffffff1661064d610d74565b73ffffffffffffffffffffffffffffffffffffffff16146106a3576040517f08c379a000000000000000000000000000000000000000000000000000000000815260040161069a9061155c565b60405180910390fd5b600073ffffffffffffffffffffffffffffffffffffffff168373ffffffffffffffffffffffffffffffffffffffff161415610713576040517f08c379a000000000000000000000000000000000000000000000000000000000815260040161070a9061163c565b60405180910390fd5b61071f600084846111c6565b8160036000828254610731919061170e565b92505081905550816000808573ffffffffffffffffffffffffffffffffffffffff1673ffffffffffffffffffffffffffffffffffffffff1681526020019081526020016000206000828254610786919061170e565b925050819055508273ffffffffffffffffffffffffffffffffffffffff16600073ffffffffffffffffffffffffffffffffffffffff167fddf252ad1be2c89b69c2b068fc378daa952ba7f163c4a11628f55a4df523b3ef846040516107eb91906116bc565b60405180910390a36001905092915050565b6000600260009054906101000a900473ffffffffffffffffffffffffffffffffffffffff1673ffffffffffffffffffffffffffffffffffffffff16610840610d74565b73ffffffffffffffffffffffffffffffffffffffff1614610896576040517f08c379a000000000000000000000000000000000000000000000000000000000815260040161088d9061155c565b60405180910390fd5b60008060006108a3610d74565b73ffffffffffffffffffffffffffffffffffffffff1673ffffffffffffffffffffffffffffffffffffffff16815260200190815260200160002054905082811015610923576040517f08c379a000000000000000000000000000000000000000000000000000000000815260040161091a9061167c565b60405180910390fd5b61093661092e610d74565b6000856111c6565b82816109429190611764565b60008061094d610d74565b73ffffffffffffffffffffffffffffffffffffffff1673ffffffffffffffffffffffffffffffffffffffff16815260200190815260200160002081905550826003600082825461099d9190611764565b925050819055506001915050919050565b60008060008373ffffffffffffffffffffffffffffffffffffffff1673ffffffffffffffffffffffffffffffffffffffff168152602001908152602001600020549050919050565b606060058054610a0590611820565b80601f0160208091040260200160405190810160405280929190818152602001828054610a3190611820565b8015610a7e5780601f10610a5357610100808354040283529160200191610a7e565b820191906000526020600020905b815481529060010190602001808311610a6157829003601f168201915b5050505050905090565b60008060016000610a97610d74565b73ffffffffffffffffffffffffffffffffffffffff1673ffffffffffffffffffffffffffffffffffffffff16815260200190815260200160002060008573ffffffffffffffffffffffffffffffffffffffff1673ffffffffffffffffffffffffffffffffffffffff16815260200190815260200160002054905082811015610b54576040517f08c379a0000000000000000000000000000000000000000000000000000000008152600401610b4b9061159c565b60405180910390fd5b610b71610b5f610d74565b858584610b6c9190611764565b610d7c565b600191505092915050565b6000610b90610b89610d74565b8484610f47565b6001905092915050565b6000600260009054906101000a900473ffffffffffffffffffffffffffffffffffffffff1673ffffffffffffffffffffffffffffffffffffffff16610bdd610d74565b73ffffffffffffffffffffffffffffffffffffffff1614610c33576040517f08c379a0000000000000000000000000000000000000000000000000000000008152600401610c2a9061155c565b60405180910390fd5b600073ffffffffffffffffffffffffffffffffffffffff168273ffffffffffffffffffffffffffffffffffffffff161415610ca3576040517f08c379a0000000000000000000000000000000000000000000000000000000008152600401610c9a906115bc565b60405180910390fd5b81600260006101000a81548173ffffffffffffffffffffffffffffffffffffffff021916908373ffffffffffffffffffffffffffffffffffffffff16021790555060019050919050565b6000600160008473ffffffffffffffffffffffffffffffffffffffff1673ffffffffffffffffffffffffffffffffffffffff16815260200190815260200160002060008373ffffffffffffffffffffffffffffffffffffffff1673ffffffffffffffffffffffffffffffffffffffff16815260200190815260200160002054905092915050565b600033905090565b600073ffffffffffffffffffffffffffffffffffffffff168373ffffffffffffffffffffffffffffffffffffffff161415610dec576040517f08c379a0000000000000000000000000000000000000000000000000000000008152600401610de39061169c565b60405180910390fd5b600073ffffffffffffffffffffffffffffffffffffffff168273ffffffffffffffffffffffffffffffffffffffff161415610e5c576040517f08c379a0000000000000000000000000000000000000000000000000000000008152600401610e539061157c565b60405180910390fd5b80600160008573ffffffffffffffffffffffffffffffffffffffff1673ffffffffffffffffffffffffffffffffffffffff16815260200190815260200160002060008473ffffffffffffffffffffffffffffffffffffffff1673ffffffffffffffffffffffffffffffffffffffff168152602001908152602001600020819055508173ffffffffffffffffffffffffffffffffffffffff168373ffffffffffffffffffffffffffffffffffffffff167f8c5be1e5ebec7d5bd14f71427d1e84f3dd0314c0f7b2291e5b200ac8c7c3b92583604051610f3a91906116bc565b60405180910390a3505050565b600073ffffffffffffffffffffffffffffffffffffffff168373ffffffffffffffffffffffffffffffffffffffff161415610fb7576040517f08c379a0000000000000000000000000000000000000000000000000000000008152600401610fae906115dc565b60405180910390fd5b600073ffffffffffffffffffffffffffffffffffffffff168273ffffffffffffffffffffffffffffffffffffffff161415611027576040517f08c379a000000000000000000000000000000000000000000000000000000000815260040161101e9061161c565b60405180910390fd5b6110328383836111c6565b60008060008573ffffffffffffffffffffffffffffffffffffffff1673ffffffffffffffffffffffffffffffffffffffff168152602001908152602001600020549050818110156110b8576040517f08c379a00000000000000000000000000000000000000000000000000000000081526004016110af906115fc565b60405180910390fd5b81816110c49190611764565b6000808673ffffffffffffffffffffffffffffffffffffffff1673ffffffffffffffffffffffffffffffffffffffff16815260200190815260200160002081905550816000808573ffffffffffffffffffffffffffffffffffffffff1673ffffffffffffffffffffffffffffffffffffffff1681526020019081526020016000206000828254611154919061170e565b925050819055508273ffffffffffffffffffffffffffffffffffffffff168473ffffffffffffffffffffffffffffffffffffffff167fddf252ad1be2c89b69c2b068fc378daa952ba7f163c4a11628f55a4df523b3ef846040516111b891906116bc565b60405180910390a350505050565b505050565b6000813590506111da81611b42565b92915050565b6000813590506111ef81611b59565b92915050565b60006020828403121561120757600080fd5b6000611215848285016111cb565b91505092915050565b6000806040838503121561123157600080fd5b600061123f858286016111cb565b9250506020611250858286016111cb565b9150509250929050565b60008060006060848603121561126f57600080fd5b600061127d868287016111cb565b935050602061128e868287016111cb565b925050604061129f868287016111e0565b9150509250925092565b600080604083850312156112bc57600080fd5b60006112ca858286016111cb565b92505060206112db858286016111e0565b9150509250929050565b6000602082840312156112f757600080fd5b6000611305848285016111e0565b91505092915050565b61131781611798565b82525050565b611326816117aa565b82525050565b6000611337826116f2565b61134181856116fd565b93506113518185602086016117ed565b61135a816118b0565b840191505092915050565b6000611372601a836116fd565b915061137d826118c1565b602082019050919050565b6000611395601e836116fd565b91506113a0826118ea565b602082019050919050565b60006113b8602a836116fd565b91506113c382611913565b604082019050919050565b60006113db6021836116fd565b91506113e682611962565b604082019050919050565b60006113fe6021836116fd565b9150611409826119b1565b604082019050919050565b60006114216026836116fd565b915061142c82611a00565b604082019050919050565b6000611444601f836116fd565b915061144f82611a4f565b602082019050919050565b6000611467601d836116fd565b915061147282611a78565b602082019050919050565b600061148a601f836116fd565b915061149582611aa1565b602082019050919050565b60006114ad6025836116fd565b91506114b882611aca565b604082019050919050565b60006114d06020836116fd565b91506114db82611b19565b602082019050919050565b6114ef816117d6565b82525050565b6114fe816117e0565b82525050565b6000602082019050611519600083018461130e565b92915050565b6000602082019050611534600083018461131d565b92915050565b60006020820190508181036000830152611554818461132c565b905092915050565b6000602082019050818103600083015261157581611365565b9050919050565b6000602082019050818103600083015261159581611388565b9050919050565b600060208201905081810360008301526115b5816113ab565b9050919050565b600060208201905081810360008301526115d5816113ce565b9050919050565b600060208201905081810360008301526115f5816113f1565b9050919050565b6000602082019050818103600083015261161581611414565b9050919050565b6000602082019050818103600083015261163581611437565b9050919050565b600060208201905081810360008301526116558161145a565b9050919050565b600060208201905081810360008301526116758161147d565b9050919050565b60006020820190508181036000830152611695816114a0565b9050919050565b600060208201905081810360008301526116b5816114c3565b9050919050565b60006020820190506116d160008301846114e6565b92915050565b60006020820190506116ec60008301846114f5565b92915050565b600081519050919050565b600082825260208201905092915050565b6000611719826117d6565b9150611724836117d6565b9250827fffffffffffffffffffffffffffffffffffffffffffffffffffffffffffffffff0382111561175957611758611852565b5b828201905092915050565b600061176f826117d6565b915061177a836117d6565b92508282101561178d5761178c611852565b5b828203905092915050565b60006117a3826117b6565b9050919050565b60008115159050919050565b600073ffffffffffffffffffffffffffffffffffffffff82169050919050565b6000819050919050565b600060ff82169050919050565b60005b8381101561180b5780820151818401526020810190506117f0565b8381111561181a576000848401525b50505050565b6000600282049050600182168061183857607f821691505b6020821081141561184c5761184b611881565b5b50919050565b7f4e487b7100000000000000000000000000000000000000000000000000000000600052601160045260246000fd5b7f4e487b7100000000000000000000000000000000000000000000000000000000600052602260045260246000fd5b6000601f19601f8301169050919050565b7f45524332303a2063616c6c6572206e6f7420676f7665726e6f72000000000000600082015250565b7f45524332303a20617070726f766520746f207a65726f20616464726573730000600082015250565b7f45524332303a205265647563656456616c75652067726561746572207468616e60008201527f20616c6c6f77616e636500000000000000000000000000000000000000000000602082015250565b7f45524332303a207a65726f20616464726573732063616e6e6f7420676f76657260008201527f6e00000000000000000000000000000000000000000000000000000000000000602082015250565b7f45524332303a207472616e736665722066726f6d207a65726f2061646472657360008201527f7300000000000000000000000000000000000000000000000000000000000000602082015250565b7f45524332303a207472616e7366657220616d6f756e742065786365656473206260008201527f616c616e63650000000000000000000000000000000000000000000000000000602082015250565b7f45524332303a207472616e7366657220746f207a65726f206164647265737300600082015250565b7f45524332303a206d696e7420746f2061207a65726f2061646472657373000000600082015250565b7f45524332303a20616d6f756e74206578636565647320616c6c6f77616e636500600082015250565b7f45524332303a206275726e696e6720616d6f756e74206578636565647320626160008201527f6c616e6365000000000000000000000000000000000000000000000000000000602082015250565b7f45524332303a20617070726f76652066726f6d207a65726f2061646472657373600082015250565b611b4b81611798565b8114611b5657600080fd5b50565b611b62816117d6565b8114611b6d57600080fd5b5056fea2646970667358221220ada2b6a8f196fe3f406feec5efe65c4243d901a8b1e1be220e8156e33601cff564736f6c63430008040033",
  "linkReferences": {},
  "deployedLinkReferences": {}
}