{
  "_format": "hh-sol-artifact-1",
  "contractName": "BEP1155",
  "sourceName": "contracts/BEP1155.sol",
  "abi": [
    {
      "inputs": [
        {
          "internalType": "string",
          "name": "uri_",
          "type": "string"
        },
        {
          "internalType": "address",
          "name": "_dao",
          "type": "address"
        }
      ],
      "stateMutability": "nonpayable",
      "type": "constructor"
    },
    {
      "anonymous": false,
      "inputs": [
        {
          "indexed": true,
          "internalType": "address",
          "name": "account",
          "type": "address"
        },
        {
          "indexed": true,
          "internalType": "address",
          "name": "operator",
          "type": "address"
        },
        {
          "indexed": false,
          "internalType": "bool",
          "name": "approved",
          "type": "bool"
        }
      ],
      "name": "ApprovalForAll",
      "type": "event"
    },
    {
      "anonymous": false,
      "inputs": [
        {
          "indexed": true,
          "internalType": "address",
          "name": "operator",
          "type": "address"
        },
        {
          "indexed": true,
          "internalType": "address",
          "name": "from",
          "type": "address"
        },
        {
          "indexed": true,
          "internalType": "address",
          "name": "to",
          "type": "address"
        },
        {
          "indexed": false,
          "internalType": "uint256[]",
          "name": "ids",
          "type": "uint256[]"
        },
        {
          "indexed": false,
          "internalType": "uint256[]",
          "name": "values",
          "type": "uint256[]"
        }
      ],
      "name": "TransferBatch",
      "type": "event"
    },
    {
      "anonymous": false,
      "inputs": [
        {
          "indexed": true,
          "internalType": "address",
          "name": "operator",
          "type": "address"
        },
        {
          "indexed": true,
          "internalType": "address",
          "name": "from",
          "type": "address"
        },
        {
          "indexed": true,
          "internalType": "address",
          "name": "to",
          "type": "address"
        },
        {
          "indexed": false,
          "internalType": "uint256",
          "name": "id",
          "type": "uint256"
        },
        {
          "indexed": false,
          "internalType": "uint256",
          "name": "value",
          "type": "uint256"
        }
      ],
      "name": "TransferSingle",
      "type": "event"
    },
    {
      "anonymous": false,
      "inputs": [
        {
          "indexed": false,
          "internalType": "string",
          "name": "value",
          "type": "string"
        },
        {
          "indexed": true,
          "internalType": "uint256",
          "name": "id",
          "type": "uint256"
        }
      ],
      "name": "URI",
      "type": "event"
    },
    {
      "inputs": [
        {
          "internalType": "address",
          "name": "account",
          "type": "address"
        },
        {
          "internalType": "uint256",
          "name": "id",
          "type": "uint256"
        }
      ],
      "name": "balanceOf",
      "outputs": [
        {
          "internalType": "uint256",
          "name": "",
          "type": "uint256"
        }
      ],
      "stateMutability": "view",
      "type": "function"
    },
    {
      "inputs": [
        {
          "internalType": "address[]",
          "name": "accounts",
          "type": "address[]"
        },
        {
          "internalType": "uint256[]",
          "name": "ids",
          "type": "uint256[]"
        }
      ],
      "name": "balanceOfBatch",
      "outputs": [
        {
          "internalType": "uint256[]",
          "name": "",
          "type": "uint256[]"
        }
      ],
      "stateMutability": "view",
      "type": "function"
    },
    {
      "inputs": [],
      "name": "dao",
      "outputs": [
        {
          "internalType": "address",
          "name": "",
          "type": "address"
        }
      ],
      "stateMutability": "view",
      "type": "function"
    },
    {
      "inputs": [
        {
          "internalType": "address",
          "name": "account",
          "type": "address"
        },
        {
          "internalType": "address",
          "name": "operator",
          "type": "address"
        }
      ],
      "name": "isApprovedForAll",
      "outputs": [
        {
          "internalType": "bool",
          "name": "",
          "type": "bool"
        }
      ],
      "stateMutability": "view",
      "type": "function"
    },
    {
      "inputs": [
        {
          "internalType": "address",
          "name": "_owner",
          "type": "address"
        },
        {
          "internalType": "uint256",
          "name": "_tokenId",
          "type": "uint256"
        },
        {
          "internalType": "uint256",
          "name": "_amount",
          "type": "uint256"
        }
      ],
      "name": "mint",
      "outputs": [],
      "stateMutability": "nonpayable",
      "type": "function"
    },
    {
      "inputs": [
        {
          "internalType": "address",
          "name": "from",
          "type": "address"
        },
        {
          "internalType": "address",
          "name": "to",
          "type": "address"
        },
        {
          "internalType": "uint256[]",
          "name": "ids",
          "type": "uint256[]"
        },
        {
          "internalType": "uint256[]",
          "name": "amounts",
          "type": "uint256[]"
        },
        {
          "internalType": "bytes",
          "name": "data",
          "type": "bytes"
        }
      ],
      "name": "safeBatchTransferFrom",
      "outputs": [],
      "stateMutability": "nonpayable",
      "type": "function"
    },
    {
      "inputs": [
        {
          "internalType": "address",
          "name": "from",
          "type": "address"
        },
        {
          "internalType": "address",
          "name": "to",
          "type": "address"
        },
        {
          "internalType": "uint256",
          "name": "id",
          "type": "uint256"
        },
        {
          "internalType": "uint256",
          "name": "amount",
          "type": "uint256"
        },
        {
          "internalType": "bytes",
          "name": "data",
          "type": "bytes"
        }
      ],
      "name": "safeTransferFrom",
      "outputs": [],
      "stateMutability": "nonpayable",
      "type": "function"
    },
    {
      "inputs": [
        {
          "internalType": "address",
          "name": "operator",
          "type": "address"
        },
        {
          "internalType": "bool",
          "name": "approved",
          "type": "bool"
        }
      ],
      "name": "setApprovalForAll",
      "outputs": [],
      "stateMutability": "nonpayable",
      "type": "function"
    },
    {
      "inputs": [
        {
          "internalType": "bytes4",
          "name": "interfaceId",
          "type": "bytes4"
        }
      ],
      "name": "supportsInterface",
      "outputs": [
        {
          "internalType": "bool",
          "name": "",
          "type": "bool"
        }
      ],
      "stateMutability": "view",
      "type": "function"
    },
    {
      "inputs": [
        {
          "internalType": "uint256",
          "name": "",
          "type": "uint256"
        }
      ],
      "name": "uri",
      "outputs": [
        {
          "internalType": "string",
          "name": "",
          "type": "string"
        }
      ],
      "stateMutability": "view",
      "type": "function"
    }
  ],
  "bytecode": "0x60806040523480156200001157600080fd5b5060405162002f9f38038062002f9f8339818101604052810190620000379190620001e5565b62000048826200009060201b60201c565b806000806101000a81548173ffffffffffffffffffffffffffffffffffffffff021916908373ffffffffffffffffffffffffffffffffffffffff1602179055505050620003fd565b8060039080519060200190620000a8929190620000ac565b5050565b828054620000ba9062000308565b90600052602060002090601f016020900481019282620000de57600085556200012a565b82601f10620000f957805160ff19168380011785556200012a565b828001600101855582156200012a579182015b82811115620001295782518255916020019190600101906200010c565b5b5090506200013991906200013d565b5090565b5b80821115620001585760008160009055506001016200013e565b5090565b6000620001736200016d8462000268565b6200023f565b9050828152602081018484840111156200018c57600080fd5b62000199848285620002d2565b509392505050565b600081519050620001b281620003e3565b92915050565b600082601f830112620001ca57600080fd5b8151620001dc8482602086016200015c565b91505092915050565b60008060408385031215620001f957600080fd5b600083015167ffffffffffffffff8111156200021457600080fd5b6200022285828601620001b8565b92505060206200023585828601620001a1565b9150509250929050565b60006200024b6200025e565b90506200025982826200033e565b919050565b6000604051905090565b600067ffffffffffffffff821115620002865762000285620003a3565b5b6200029182620003d2565b9050602081019050919050565b6000620002ab82620002b2565b9050919050565b600073ffffffffffffffffffffffffffffffffffffffff82169050919050565b60005b83811015620002f2578082015181840152602081019050620002d5565b8381111562000302576000848401525b50505050565b600060028204905060018216806200032157607f821691505b6020821081141562000338576200033762000374565b5b50919050565b6200034982620003d2565b810181811067ffffffffffffffff821117156200036b576200036a620003a3565b5b80604052505050565b7f4e487b7100000000000000000000000000000000000000000000000000000000600052602260045260246000fd5b7f4e487b7100000000000000000000000000000000000000000000000000000000600052604160045260246000fd5b6000601f19601f8301169050919050565b620003ee816200029e565b8114620003fa57600080fd5b50565b612b92806200040d6000396000f3fe608060405234801561001057600080fd5b506004361061009d5760003560e01c80634162169f116100665780634162169f1461016a5780634e1273f414610188578063a22cb465146101b8578063e985e9c5146101d4578063f242432a146102045761009d565b8062fdd58e146100a257806301ffc9a7146100d25780630e89341c14610102578063156e29f6146101325780632eb2c2d61461014e575b600080fd5b6100bc60048036038101906100b79190611b44565b610220565b6040516100c9919061229a565b60405180910390f35b6100ec60048036038101906100e79190611c64565b6102ea565b6040516100f991906120dd565b60405180910390f35b61011c60048036038101906101179190611cb6565b6103cc565b60405161012991906120f8565b60405180910390f35b61014c60048036038101906101479190611b80565b610460565b005b610168600480360381019061016391906119ba565b61058e565b005b61017261062f565b60405161017f9190611fa7565b60405180910390f35b6101a2600480360381019061019d9190611bcf565b610653565b6040516101af9190612084565b60405180910390f35b6101d260048036038101906101cd9190611b08565b610804565b005b6101ee60048036038101906101e9919061197e565b610985565b6040516101fb91906120dd565b60405180910390f35b61021e60048036038101906102199190611a79565b610a19565b005b60008073ffffffffffffffffffffffffffffffffffffffff168373ffffffffffffffffffffffffffffffffffffffff161415610291576040517f08c379a00000000000000000000000000000000000000000000000000000000081526004016102889061219a565b60405180910390fd5b6001600083815260200190815260200160002060008473ffffffffffffffffffffffffffffffffffffffff1673ffffffffffffffffffffffffffffffffffffffff16815260200190815260200160002054905092915050565b60007fd9b67a26000000000000000000000000000000000000000000000000000000007bffffffffffffffffffffffffffffffffffffffffffffffffffffffff1916827bffffffffffffffffffffffffffffffffffffffffffffffffffffffff191614806103b557507f0e89341c000000000000000000000000000000000000000000000000000000007bffffffffffffffffffffffffffffffffffffffffffffffffffffffff1916827bffffffffffffffffffffffffffffffffffffffffffffffffffffffff1916145b806103c557506103c482610aba565b5b9050919050565b6060600380546103db9061253d565b80601f01602080910402602001604051908101604052809291908181526020018280546104079061253d565b80156104545780601f1061042957610100808354040283529160200191610454565b820191906000526020600020905b81548152906001019060200180831161043757829003601f168201915b50505050509050919050565b60008054906101000a900473ffffffffffffffffffffffffffffffffffffffff1673ffffffffffffffffffffffffffffffffffffffff16631a2f7167846040518263ffffffff1660e01b81526004016104b99190611fa7565b60206040518083038186803b1580156104d157600080fd5b505afa1580156104e5573d6000803e3d6000fd5b505050506040513d601f19601f820116820180604052508101906105099190611c3b565b610548576040517f08c379a000000000000000000000000000000000000000000000000000000000815260040161053f9061213a565b60405180910390fd5b6105898383836040518060400160405280600481526020017f3078303000000000000000000000000000000000000000000000000000000000815250610b24565b505050565b610596610cbb565b73ffffffffffffffffffffffffffffffffffffffff168573ffffffffffffffffffffffffffffffffffffffff1614806105dc57506105db856105d6610cbb565b610985565b5b61061b576040517f08c379a0000000000000000000000000000000000000000000000000000000008152600401610612906121ba565b60405180910390fd5b6106288585858585610cc3565b5050505050565b60008054906101000a900473ffffffffffffffffffffffffffffffffffffffff1681565b60608151835114610699576040517f08c379a00000000000000000000000000000000000000000000000000000000081526004016106909061217a565b60405180910390fd5b6000835167ffffffffffffffff8111156106dc577f4e487b7100000000000000000000000000000000000000000000000000000000600052604160045260246000fd5b60405190808252806020026020018201604052801561070a5781602001602082028036833780820191505090505b50905060005b84518110156107f9576107a3858281518110610755577f4e487b7100000000000000000000000000000000000000000000000000000000600052603260045260246000fd5b6020026020010151858381518110610796577f4e487b7100000000000000000000000000000000000000000000000000000000600052603260045260246000fd5b6020026020010151610220565b8282815181106107dc577f4e487b7100000000000000000000000000000000000000000000000000000000600052603260045260246000fd5b602002602001018181525050806107f2906125a0565b9050610710565b508091505092915050565b8173ffffffffffffffffffffffffffffffffffffffff16610823610cbb565b73ffffffffffffffffffffffffffffffffffffffff16141561087a576040517f08c379a00000000000000000000000000000000000000000000000000000000081526004016108719061225a565b60405180910390fd5b8060026000610887610cbb565b73ffffffffffffffffffffffffffffffffffffffff1673ffffffffffffffffffffffffffffffffffffffff16815260200190815260200160002060008473ffffffffffffffffffffffffffffffffffffffff1673ffffffffffffffffffffffffffffffffffffffff16815260200190815260200160002060006101000a81548160ff0219169083151502179055508173ffffffffffffffffffffffffffffffffffffffff16610934610cbb565b73ffffffffffffffffffffffffffffffffffffffff167f17307eab39ab6107e8899845ad3d59bd9653f200f220920489ca2b5937696c318360405161097991906120dd565b60405180910390a35050565b6000600260008473ffffffffffffffffffffffffffffffffffffffff1673ffffffffffffffffffffffffffffffffffffffff16815260200190815260200160002060008373ffffffffffffffffffffffffffffffffffffffff1673ffffffffffffffffffffffffffffffffffffffff16815260200190815260200160002060009054906101000a900460ff16905092915050565b610a21610cbb565b73ffffffffffffffffffffffffffffffffffffffff168573ffffffffffffffffffffffffffffffffffffffff161480610a675750610a6685610a61610cbb565b610985565b5b610aa6576040517f08c379a0000000000000000000000000000000000000000000000000000000008152600401610a9d9061223a565b60405180910390fd5b610ab3858585858561102f565b5050505050565b60007f01ffc9a7000000000000000000000000000000000000000000000000000000007bffffffffffffffffffffffffffffffffffffffffffffffffffffffff1916827bffffffffffffffffffffffffffffffffffffffffffffffffffffffff1916149050919050565b600073ffffffffffffffffffffffffffffffffffffffff168473ffffffffffffffffffffffffffffffffffffffff161415610b94576040517f08c379a0000000000000000000000000000000000000000000000000000000008152600401610b8b906121fa565b60405180910390fd5b6000610b9e610cbb565b9050610bbf81600087610bb0886112bd565b610bb9886112bd565b87611383565b826001600086815260200190815260200160002060008773ffffffffffffffffffffffffffffffffffffffff1673ffffffffffffffffffffffffffffffffffffffff1681526020019081526020016000206000828254610c1f91906123fd565b925050819055508473ffffffffffffffffffffffffffffffffffffffff16600073ffffffffffffffffffffffffffffffffffffffff168273ffffffffffffffffffffffffffffffffffffffff167fc3d58168c5ae7397731d063d5bbf3d657854427343f4c083240f7aacaa2d0f628787604051610c9d9291906122b5565b60405180910390a4610cb48160008787878761138b565b5050505050565b600033905090565b8151835114610d07576040517f08c379a0000000000000000000000000000000000000000000000000000000008152600401610cfe906121da565b60405180910390fd5b600073ffffffffffffffffffffffffffffffffffffffff168473ffffffffffffffffffffffffffffffffffffffff161415610d77576040517f08c379a0000000000000000000000000000000000000000000000000000000008152600401610d6e9061215a565b60405180910390fd5b6000610d81610cbb565b9050610d91818787878787611383565b60005b8451811015610f9a576000858281518110610dd8577f4e487b7100000000000000000000000000000000000000000000000000000000600052603260045260246000fd5b602002602001015190506000858381518110610e1d577f4e487b7100000000000000000000000000000000000000000000000000000000600052603260045260246000fd5b6020026020010151905060006001600084815260200190815260200160002060008b73ffffffffffffffffffffffffffffffffffffffff1673ffffffffffffffffffffffffffffffffffffffff16815260200190815260200160002054905081811015610ebf576040517f08c379a0000000000000000000000000000000000000000000000000000000008152600401610eb69061227a565b60405180910390fd5b8181610ecb9190612453565b6001600085815260200190815260200160002060008c73ffffffffffffffffffffffffffffffffffffffff1673ffffffffffffffffffffffffffffffffffffffff16815260200190815260200160002081905550816001600085815260200190815260200160002060008b73ffffffffffffffffffffffffffffffffffffffff1673ffffffffffffffffffffffffffffffffffffffff1681526020019081526020016000206000828254610f7f91906123fd565b9250508190555050505080610f93906125a0565b9050610d94565b508473ffffffffffffffffffffffffffffffffffffffff168673ffffffffffffffffffffffffffffffffffffffff168273ffffffffffffffffffffffffffffffffffffffff167f4a39dc06d4c0dbc64b70af90fd698a233a518aa5d07e595d983b8c0526c8f7fb87876040516110119291906120a6565b60405180910390a4611027818787878787611572565b505050505050565b600073ffffffffffffffffffffffffffffffffffffffff168473ffffffffffffffffffffffffffffffffffffffff16141561109f576040517f08c379a00000000000000000000000000000000000000000000000000000000081526004016110969061215a565b60405180910390fd5b60006110a9610cbb565b90506110c98187876110ba886112bd565b6110c3886112bd565b87611383565b60006001600086815260200190815260200160002060008873ffffffffffffffffffffffffffffffffffffffff1673ffffffffffffffffffffffffffffffffffffffff16815260200190815260200160002054905083811015611161576040517f08c379a00000000000000000000000000000000000000000000000000000000081526004016111589061227a565b60405180910390fd5b838161116d9190612453565b6001600087815260200190815260200160002060008973ffffffffffffffffffffffffffffffffffffffff1673ffffffffffffffffffffffffffffffffffffffff16815260200190815260200160002081905550836001600087815260200190815260200160002060008873ffffffffffffffffffffffffffffffffffffffff1673ffffffffffffffffffffffffffffffffffffffff168152602001908152602001600020600082825461122191906123fd565b925050819055508573ffffffffffffffffffffffffffffffffffffffff168773ffffffffffffffffffffffffffffffffffffffff168373ffffffffffffffffffffffffffffffffffffffff167fc3d58168c5ae7397731d063d5bbf3d657854427343f4c083240f7aacaa2d0f62888860405161129e9291906122b5565b60405180910390a46112b482888888888861138b565b50505050505050565b60606000600167ffffffffffffffff811115611302577f4e487b7100000000000000000000000000000000000000000000000000000000600052604160045260246000fd5b6040519080825280602002602001820160405280156113305781602001602082028036833780820191505090505b509050828160008151811061136e577f4e487b7100000000000000000000000000000000000000000000000000000000600052603260045260246000fd5b60200260200101818152505080915050919050565b505050505050565b6113aa8473ffffffffffffffffffffffffffffffffffffffff16611759565b1561156a578373ffffffffffffffffffffffffffffffffffffffff16636ab8b95b87878686866040518663ffffffff1660e01b81526004016113f095949392919061202a565b602060405180830381600087803b15801561140a57600080fd5b505af192505050801561143b57506040513d601f19601f820116820180604052508101906114389190611c8d565b60015b6114e157611447612676565b806308c379a014156114a4575061145c612a6a565b8061146757506114a6565b806040517f08c379a000000000000000000000000000000000000000000000000000000000815260040161149b91906120f8565b60405180910390fd5b505b6040517f08c379a00000000000000000000000000000000000000000000000000000000081526004016114d89061211a565b60405180910390fd5b636ab8b95b60e01b7bffffffffffffffffffffffffffffffffffffffffffffffffffffffff1916817bffffffffffffffffffffffffffffffffffffffffffffffffffffffff191614611568576040517f08c379a000000000000000000000000000000000000000000000000000000000815260040161155f9061221a565b60405180910390fd5b505b505050505050565b6115918473ffffffffffffffffffffffffffffffffffffffff16611759565b15611751578373ffffffffffffffffffffffffffffffffffffffff166393ce05b087878686866040518663ffffffff1660e01b81526004016115d7959493929190611fc2565b602060405180830381600087803b1580156115f157600080fd5b505af192505050801561162257506040513d601f19601f8201168201806040525081019061161f9190611c8d565b60015b6116c85761162e612676565b806308c379a0141561168b5750611643612a6a565b8061164e575061168d565b806040517f08c379a000000000000000000000000000000000000000000000000000000000815260040161168291906120f8565b60405180910390fd5b505b6040517f08c379a00000000000000000000000000000000000000000000000000000000081526004016116bf9061211a565b60405180910390fd5b6393ce05b060e01b7bffffffffffffffffffffffffffffffffffffffffffffffffffffffff1916817bffffffffffffffffffffffffffffffffffffffffffffffffffffffff19161461174f576040517f08c379a00000000000000000000000000000000000000000000000000000000081526004016117469061221a565b60405180910390fd5b505b505050505050565b600080823b905060008111915050919050565b600061177f61177a84612303565b6122de565b9050808382526020820190508285602086028201111561179e57600080fd5b60005b858110156117ce57816117b48882611882565b8452602084019350602083019250506001810190506117a1565b5050509392505050565b60006117eb6117e68461232f565b6122de565b9050808382526020820190508285602086028201111561180a57600080fd5b60005b8581101561183a57816118208882611969565b84526020840193506020830192505060018101905061180d565b5050509392505050565b60006118576118528461235b565b6122de565b90508281526020810184848401111561186f57600080fd5b61187a8482856124fb565b509392505050565b60008135905061189181612b00565b92915050565b600082601f8301126118a857600080fd5b81356118b884826020860161176c565b91505092915050565b600082601f8301126118d257600080fd5b81356118e28482602086016117d8565b91505092915050565b6000813590506118fa81612b17565b92915050565b60008151905061190f81612b17565b92915050565b60008135905061192481612b2e565b92915050565b60008151905061193981612b2e565b92915050565b600082601f83011261195057600080fd5b8135611960848260208601611844565b91505092915050565b60008135905061197881612b45565b92915050565b6000806040838503121561199157600080fd5b600061199f85828601611882565b92505060206119b085828601611882565b9150509250929050565b600080600080600060a086880312156119d257600080fd5b60006119e088828901611882565b95505060206119f188828901611882565b945050604086013567ffffffffffffffff811115611a0e57600080fd5b611a1a888289016118c1565b935050606086013567ffffffffffffffff811115611a3757600080fd5b611a43888289016118c1565b925050608086013567ffffffffffffffff811115611a6057600080fd5b611a6c8882890161193f565b9150509295509295909350565b600080600080600060a08688031215611a9157600080fd5b6000611a9f88828901611882565b9550506020611ab088828901611882565b9450506040611ac188828901611969565b9350506060611ad288828901611969565b925050608086013567ffffffffffffffff811115611aef57600080fd5b611afb8882890161193f565b9150509295509295909350565b60008060408385031215611b1b57600080fd5b6000611b2985828601611882565b9250506020611b3a858286016118eb565b9150509250929050565b60008060408385031215611b5757600080fd5b6000611b6585828601611882565b9250506020611b7685828601611969565b9150509250929050565b600080600060608486031215611b9557600080fd5b6000611ba386828701611882565b9350506020611bb486828701611969565b9250506040611bc586828701611969565b9150509250925092565b60008060408385031215611be257600080fd5b600083013567ffffffffffffffff811115611bfc57600080fd5b611c0885828601611897565b925050602083013567ffffffffffffffff811115611c2557600080fd5b611c31858286016118c1565b9150509250929050565b600060208284031215611c4d57600080fd5b6000611c5b84828501611900565b91505092915050565b600060208284031215611c7657600080fd5b6000611c8484828501611915565b91505092915050565b600060208284031215611c9f57600080fd5b6000611cad8482850161192a565b91505092915050565b600060208284031215611cc857600080fd5b6000611cd684828501611969565b91505092915050565b6000611ceb8383611f89565b60208301905092915050565b611d0081612487565b82525050565b6000611d118261239c565b611d1b81856123ca565b9350611d268361238c565b8060005b83811015611d57578151611d3e8882611cdf565b9750611d49836123bd565b925050600181019050611d2a565b5085935050505092915050565b611d6d81612499565b82525050565b6000611d7e826123a7565b611d8881856123db565b9350611d9881856020860161250a565b611da181612698565b840191505092915050565b6000611db7826123b2565b611dc181856123ec565b9350611dd181856020860161250a565b611dda81612698565b840191505092915050565b6000611df26034836123ec565b9150611dfd826126b6565b604082019050919050565b6000611e156024836123ec565b9150611e2082612705565b604082019050919050565b6000611e386025836123ec565b9150611e4382612754565b604082019050919050565b6000611e5b6029836123ec565b9150611e66826127a3565b604082019050919050565b6000611e7e602b836123ec565b9150611e89826127f2565b604082019050919050565b6000611ea16032836123ec565b9150611eac82612841565b604082019050919050565b6000611ec46028836123ec565b9150611ecf82612890565b604082019050919050565b6000611ee76021836123ec565b9150611ef2826128df565b604082019050919050565b6000611f0a6028836123ec565b9150611f158261292e565b604082019050919050565b6000611f2d6029836123ec565b9150611f388261297d565b604082019050919050565b6000611f506029836123ec565b9150611f5b826129cc565b604082019050919050565b6000611f73602a836123ec565b9150611f7e82612a1b565b604082019050919050565b611f92816124f1565b82525050565b611fa1816124f1565b82525050565b6000602082019050611fbc6000830184611cf7565b92915050565b600060a082019050611fd76000830188611cf7565b611fe46020830187611cf7565b8181036040830152611ff68186611d06565b9050818103606083015261200a8185611d06565b9050818103608083015261201e8184611d73565b90509695505050505050565b600060a08201905061203f6000830188611cf7565b61204c6020830187611cf7565b6120596040830186611f98565b6120666060830185611f98565b81810360808301526120788184611d73565b90509695505050505050565b6000602082019050818103600083015261209e8184611d06565b905092915050565b600060408201905081810360008301526120c08185611d06565b905081810360208301526120d48184611d06565b90509392505050565b60006020820190506120f26000830184611d64565b92915050565b600060208201905081810360008301526121128184611dac565b905092915050565b6000602082019050818103600083015261213381611de5565b9050919050565b6000602082019050818103600083015261215381611e08565b9050919050565b6000602082019050818103600083015261217381611e2b565b9050919050565b6000602082019050818103600083015261219381611e4e565b9050919050565b600060208201905081810360008301526121b381611e71565b9050919050565b600060208201905081810360008301526121d381611e94565b9050919050565b600060208201905081810360008301526121f381611eb7565b9050919050565b6000602082019050818103600083015261221381611eda565b9050919050565b6000602082019050818103600083015261223381611efd565b9050919050565b6000602082019050818103600083015261225381611f20565b9050919050565b6000602082019050818103600083015261227381611f43565b9050919050565b6000602082019050818103600083015261229381611f66565b9050919050565b60006020820190506122af6000830184611f98565b92915050565b60006040820190506122ca6000830185611f98565b6122d76020830184611f98565b9392505050565b60006122e86122f9565b90506122f4828261256f565b919050565b6000604051905090565b600067ffffffffffffffff82111561231e5761231d612647565b5b602082029050602081019050919050565b600067ffffffffffffffff82111561234a57612349612647565b5b602082029050602081019050919050565b600067ffffffffffffffff82111561237657612375612647565b5b61237f82612698565b9050602081019050919050565b6000819050602082019050919050565b600081519050919050565b600081519050919050565b600081519050919050565b6000602082019050919050565b600082825260208201905092915050565b600082825260208201905092915050565b600082825260208201905092915050565b6000612408826124f1565b9150612413836124f1565b9250827fffffffffffffffffffffffffffffffffffffffffffffffffffffffffffffffff03821115612448576124476125e9565b5b828201905092915050565b600061245e826124f1565b9150612469836124f1565b92508282101561247c5761247b6125e9565b5b828203905092915050565b6000612492826124d1565b9050919050565b60008115159050919050565b60007fffffffff0000000000000000000000000000000000000000000000000000000082169050919050565b600073ffffffffffffffffffffffffffffffffffffffff82169050919050565b6000819050919050565b82818337600083830152505050565b60005b8381101561252857808201518184015260208101905061250d565b83811115612537576000848401525b50505050565b6000600282049050600182168061255557607f821691505b6020821081141561256957612568612618565b5b50919050565b61257882612698565b810181811067ffffffffffffffff8211171561259757612596612647565b5b80604052505050565b60006125ab826124f1565b91507fffffffffffffffffffffffffffffffffffffffffffffffffffffffffffffffff8214156125de576125dd6125e9565b5b600182019050919050565b7f4e487b7100000000000000000000000000000000000000000000000000000000600052601160045260246000fd5b7f4e487b7100000000000000000000000000000000000000000000000000000000600052602260045260246000fd5b7f4e487b7100000000000000000000000000000000000000000000000000000000600052604160045260246000fd5b600060033d11156126955760046000803e6126926000516126a9565b90505b90565b6000601f19601f8301169050919050565b60008160e01c9050919050565b7f424550313135353a207472616e7366657220746f206e6f6e204245503131353560008201527f526563656976657220696d706c656d656e746572000000000000000000000000602082015250565b7f44414f3a206d696e7465722073686f756c642062652076616c6964206d65726360008201527f68616e7400000000000000000000000000000000000000000000000000000000602082015250565b7f424550313135353a207472616e7366657220746f20746865207a65726f20616460008201527f6472657373000000000000000000000000000000000000000000000000000000602082015250565b7f424550313135353a206163636f756e747320616e6420696473206c656e67746860008201527f206d69736d617463680000000000000000000000000000000000000000000000602082015250565b7f424550313135353a2062616c616e636520717565727920666f7220746865207a60008201527f65726f2061646472657373000000000000000000000000000000000000000000602082015250565b7f424550313135353a207472616e736665722063616c6c6572206973206e6f742060008201527f6f776e6572206e6f7220617070726f7665640000000000000000000000000000602082015250565b7f424550313135353a2069647320616e6420616d6f756e7473206c656e6774682060008201527f6d69736d61746368000000000000000000000000000000000000000000000000602082015250565b7f424550313135353a206d696e7420746f20746865207a65726f2061646472657360008201527f7300000000000000000000000000000000000000000000000000000000000000602082015250565b7f424550313135353a204245503131353552656365697665722072656a6563746560008201527f6420746f6b656e73000000000000000000000000000000000000000000000000602082015250565b7f424550313135353a2063616c6c6572206973206e6f74206f776e6572206e6f7260008201527f20617070726f7665640000000000000000000000000000000000000000000000602082015250565b7f424550313135353a2073657474696e6720617070726f76616c2073746174757360008201527f20666f722073656c660000000000000000000000000000000000000000000000602082015250565b7f424550313135353a20696e73756666696369656e742062616c616e636520666f60008201527f72207472616e7366657200000000000000000000000000000000000000000000602082015250565b600060443d1015612a7a57612afd565b612a826122f9565b60043d036004823e80513d602482011167ffffffffffffffff82111715612aaa575050612afd565b808201805167ffffffffffffffff811115612ac85750505050612afd565b80602083010160043d038501811115612ae5575050505050612afd565b612af48260200185018661256f565b82955050505050505b90565b612b0981612487565b8114612b1457600080fd5b50565b612b2081612499565b8114612b2b57600080fd5b50565b612b37816124a5565b8114612b4257600080fd5b50565b612b4e816124f1565b8114612b5957600080fd5b5056fea264697066735822122020f7232bbb7b2277077935392b9bf770da03647dd10df99c0e5cf8dfcf6170b164736f6c63430008040033",
  "linkReferences": {},
  "deployedLinkReferences": {}
}