{
  "_format": "hh-sol-artifact-1",
  "contractName": "BEP1155",
  "sourceName": "contracts/BEP1155.sol",
  "abi": [
    {
      "inputs": [
        {
          "internalType": "string",
          "name": "uri_",
          "type": "string"
        },
        {
          "internalType": "address",
          "name": "_dao",
          "type": "address"
        }
      ],
      "stateMutability": "nonpayable",
      "type": "constructor"
    },
    {
      "anonymous": false,
      "inputs": [
        {
          "indexed": true,
          "internalType": "address",
          "name": "account",
          "type": "address"
        },
        {
          "indexed": true,
          "internalType": "address",
          "name": "operator",
          "type": "address"
        },
        {
          "indexed": false,
          "internalType": "bool",
          "name": "approved",
          "type": "bool"
        }
      ],
      "name": "ApprovalForAll",
      "type": "event"
    },
    {
      "anonymous": false,
      "inputs": [
        {
          "indexed": true,
          "internalType": "address",
          "name": "operator",
          "type": "address"
        },
        {
          "indexed": true,
          "internalType": "address",
          "name": "from",
          "type": "address"
        },
        {
          "indexed": true,
          "internalType": "address",
          "name": "to",
          "type": "address"
        },
        {
          "indexed": false,
          "internalType": "uint256[]",
          "name": "ids",
          "type": "uint256[]"
        },
        {
          "indexed": false,
          "internalType": "uint256[]",
          "name": "values",
          "type": "uint256[]"
        }
      ],
      "name": "TransferBatch",
      "type": "event"
    },
    {
      "anonymous": false,
      "inputs": [
        {
          "indexed": true,
          "internalType": "address",
          "name": "operator",
          "type": "address"
        },
        {
          "indexed": true,
          "internalType": "address",
          "name": "from",
          "type": "address"
        },
        {
          "indexed": true,
          "internalType": "address",
          "name": "to",
          "type": "address"
        },
        {
          "indexed": false,
          "internalType": "uint256",
          "name": "id",
          "type": "uint256"
        },
        {
          "indexed": false,
          "internalType": "uint256",
          "name": "value",
          "type": "uint256"
        }
      ],
      "name": "TransferSingle",
      "type": "event"
    },
    {
      "anonymous": false,
      "inputs": [
        {
          "indexed": false,
          "internalType": "string",
          "name": "value",
          "type": "string"
        },
        {
          "indexed": true,
          "internalType": "uint256",
          "name": "id",
          "type": "uint256"
        }
      ],
      "name": "URI",
      "type": "event"
    },
    {
      "inputs": [
        {
          "internalType": "address",
          "name": "account",
          "type": "address"
        },
        {
          "internalType": "uint256",
          "name": "id",
          "type": "uint256"
        }
      ],
      "name": "balanceOf",
      "outputs": [
        {
          "internalType": "uint256",
          "name": "",
          "type": "uint256"
        }
      ],
      "stateMutability": "view",
      "type": "function"
    },
    {
      "inputs": [
        {
          "internalType": "address[]",
          "name": "accounts",
          "type": "address[]"
        },
        {
          "internalType": "uint256[]",
          "name": "ids",
          "type": "uint256[]"
        }
      ],
      "name": "balanceOfBatch",
      "outputs": [
        {
          "internalType": "uint256[]",
          "name": "",
          "type": "uint256[]"
        }
      ],
      "stateMutability": "view",
      "type": "function"
    },
    {
      "inputs": [],
      "name": "dao",
      "outputs": [
        {
          "internalType": "address",
          "name": "",
          "type": "address"
        }
      ],
      "stateMutability": "view",
      "type": "function"
    },
    {
      "inputs": [
        {
          "internalType": "uint256",
          "name": "id",
          "type": "uint256"
        }
      ],
      "name": "exists",
      "outputs": [
        {
          "internalType": "bool",
          "name": "",
          "type": "bool"
        }
      ],
      "stateMutability": "view",
      "type": "function"
    },
    {
      "inputs": [
        {
          "internalType": "address",
          "name": "account",
          "type": "address"
        },
        {
          "internalType": "address",
          "name": "operator",
          "type": "address"
        }
      ],
      "name": "isApprovedForAll",
      "outputs": [
        {
          "internalType": "bool",
          "name": "",
          "type": "bool"
        }
      ],
      "stateMutability": "view",
      "type": "function"
    },
    {
      "inputs": [
        {
          "internalType": "address",
          "name": "_owner",
          "type": "address"
        },
        {
          "internalType": "uint256",
          "name": "_tokenId",
          "type": "uint256"
        },
        {
          "internalType": "uint256",
          "name": "_amount",
          "type": "uint256"
        }
      ],
      "name": "mint",
      "outputs": [],
      "stateMutability": "nonpayable",
      "type": "function"
    },
    {
      "inputs": [
        {
          "internalType": "address",
          "name": "from",
          "type": "address"
        },
        {
          "internalType": "address",
          "name": "to",
          "type": "address"
        },
        {
          "internalType": "uint256[]",
          "name": "ids",
          "type": "uint256[]"
        },
        {
          "internalType": "uint256[]",
          "name": "amounts",
          "type": "uint256[]"
        },
        {
          "internalType": "bytes",
          "name": "data",
          "type": "bytes"
        }
      ],
      "name": "safeBatchTransferFrom",
      "outputs": [],
      "stateMutability": "nonpayable",
      "type": "function"
    },
    {
      "inputs": [
        {
          "internalType": "address",
          "name": "from",
          "type": "address"
        },
        {
          "internalType": "address",
          "name": "to",
          "type": "address"
        },
        {
          "internalType": "uint256",
          "name": "id",
          "type": "uint256"
        },
        {
          "internalType": "uint256",
          "name": "amount",
          "type": "uint256"
        },
        {
          "internalType": "bytes",
          "name": "data",
          "type": "bytes"
        }
      ],
      "name": "safeTransferFrom",
      "outputs": [],
      "stateMutability": "nonpayable",
      "type": "function"
    },
    {
      "inputs": [
        {
          "internalType": "address",
          "name": "operator",
          "type": "address"
        },
        {
          "internalType": "bool",
          "name": "approved",
          "type": "bool"
        }
      ],
      "name": "setApprovalForAll",
      "outputs": [],
      "stateMutability": "nonpayable",
      "type": "function"
    },
    {
      "inputs": [
        {
          "internalType": "bytes4",
          "name": "interfaceId",
          "type": "bytes4"
        }
      ],
      "name": "supportsInterface",
      "outputs": [
        {
          "internalType": "bool",
          "name": "",
          "type": "bool"
        }
      ],
      "stateMutability": "view",
      "type": "function"
    },
    {
      "inputs": [
        {
          "internalType": "uint256",
          "name": "id",
          "type": "uint256"
        }
      ],
      "name": "totalSupply",
      "outputs": [
        {
          "internalType": "uint256",
          "name": "",
          "type": "uint256"
        }
      ],
      "stateMutability": "view",
      "type": "function"
    },
    {
      "inputs": [
        {
          "internalType": "uint256",
          "name": "",
          "type": "uint256"
        }
      ],
      "name": "uri",
      "outputs": [
        {
          "internalType": "string",
          "name": "",
          "type": "string"
        }
      ],
      "stateMutability": "view",
      "type": "function"
    }
  ],
  "bytecode": "0x60806040523480156200001157600080fd5b5060405162003125380380620031258339818101604052810190620000379190620001e5565b62000048826200009060201b60201c565b806000806101000a81548173ffffffffffffffffffffffffffffffffffffffff021916908373ffffffffffffffffffffffffffffffffffffffff1602179055505050620003fd565b8060049080519060200190620000a8929190620000ac565b5050565b828054620000ba9062000308565b90600052602060002090601f016020900481019282620000de57600085556200012a565b82601f10620000f957805160ff19168380011785556200012a565b828001600101855582156200012a579182015b82811115620001295782518255916020019190600101906200010c565b5b5090506200013991906200013d565b5090565b5b80821115620001585760008160009055506001016200013e565b5090565b6000620001736200016d8462000268565b6200023f565b9050828152602081018484840111156200018c57600080fd5b62000199848285620002d2565b509392505050565b600081519050620001b281620003e3565b92915050565b600082601f830112620001ca57600080fd5b8151620001dc8482602086016200015c565b91505092915050565b60008060408385031215620001f957600080fd5b600083015167ffffffffffffffff8111156200021457600080fd5b6200022285828601620001b8565b92505060206200023585828601620001a1565b9150509250929050565b60006200024b6200025e565b90506200025982826200033e565b919050565b6000604051905090565b600067ffffffffffffffff821115620002865762000285620003a3565b5b6200029182620003d2565b9050602081019050919050565b6000620002ab82620002b2565b9050919050565b600073ffffffffffffffffffffffffffffffffffffffff82169050919050565b60005b83811015620002f2578082015181840152602081019050620002d5565b8381111562000302576000848401525b50505050565b600060028204905060018216806200032157607f821691505b6020821081141562000338576200033762000374565b5b50919050565b6200034982620003d2565b810181811067ffffffffffffffff821117156200036b576200036a620003a3565b5b80604052505050565b7f4e487b7100000000000000000000000000000000000000000000000000000000600052602260045260246000fd5b7f4e487b7100000000000000000000000000000000000000000000000000000000600052604160045260246000fd5b6000601f19601f8301169050919050565b620003ee816200029e565b8114620003fa57600080fd5b50565b612d18806200040d6000396000f3fe608060405234801561001057600080fd5b50600436106100b35760003560e01c80634e1273f4116100715780634e1273f41461019e5780634f558e79146101ce578063a22cb465146101fe578063bd85b0391461021a578063e985e9c51461024a578063f242432a1461027a576100b3565b8062fdd58e146100b857806301ffc9a7146100e85780630e89341c14610118578063156e29f6146101485780632eb2c2d6146101645780634162169f14610180575b600080fd5b6100d260048036038101906100cd9190611c5e565b610296565b6040516100df91906123f7565b60405180910390f35b61010260048036038101906100fd9190611d7e565b610360565b60405161010f919061221a565b60405180910390f35b610132600480360381019061012d9190611dd0565b610442565b60405161013f9190612235565b60405180910390f35b610162600480360381019061015d9190611c9a565b6104d6565b005b61017e60048036038101906101799190611ad4565b61064d565b005b6101886106ee565b60405161019591906120e4565b60405180910390f35b6101b860048036038101906101b39190611ce9565b610712565b6040516101c591906121c1565b60405180910390f35b6101e860048036038101906101e39190611dd0565b6108c3565b6040516101f5919061221a565b60405180910390f35b61021860048036038101906102139190611c22565b6108d7565b005b610234600480360381019061022f9190611dd0565b610a58565b60405161024191906123f7565b60405180910390f35b610264600480360381019061025f9190611a98565b610a75565b604051610271919061221a565b60405180910390f35b610294600480360381019061028f9190611b93565b610b09565b005b60008073ffffffffffffffffffffffffffffffffffffffff168373ffffffffffffffffffffffffffffffffffffffff161415610307576040517f08c379a00000000000000000000000000000000000000000000000000000000081526004016102fe906122d7565b60405180910390fd5b6001600083815260200190815260200160002060008473ffffffffffffffffffffffffffffffffffffffff1673ffffffffffffffffffffffffffffffffffffffff16815260200190815260200160002054905092915050565b60007fd9b67a26000000000000000000000000000000000000000000000000000000007bffffffffffffffffffffffffffffffffffffffffffffffffffffffff1916827bffffffffffffffffffffffffffffffffffffffffffffffffffffffff1916148061042b57507f0e89341c000000000000000000000000000000000000000000000000000000007bffffffffffffffffffffffffffffffffffffffffffffffffffffffff1916827bffffffffffffffffffffffffffffffffffffffffffffffffffffffff1916145b8061043b575061043a82610baa565b5b9050919050565b6060600480546104519061269a565b80601f016020809104026020016040519081016040528092919081815260200182805461047d9061269a565b80156104ca5780601f1061049f576101008083540402835291602001916104ca565b820191906000526020600020905b8154815290600101906020018083116104ad57829003601f168201915b50505050509050919050565b60008054906101000a900473ffffffffffffffffffffffffffffffffffffffff1673ffffffffffffffffffffffffffffffffffffffff16631a2f7167846040518263ffffffff1660e01b815260040161052f91906120e4565b60206040518083038186803b15801561054757600080fd5b505afa15801561055b573d6000803e3d6000fd5b505050506040513d601f19601f8201168201806040525081019061057f9190611d55565b6105be576040517f08c379a00000000000000000000000000000000000000000000000000000000081526004016105b590612277565b60405180910390fd5b6105c7826108c3565b15610607576040517f08c379a00000000000000000000000000000000000000000000000000000000081526004016105fe90612377565b60405180910390fd5b6106488383836040518060400160405280600481526020017f3078303000000000000000000000000000000000000000000000000000000000815250610c14565b505050565b610655610dd5565b73ffffffffffffffffffffffffffffffffffffffff168573ffffffffffffffffffffffffffffffffffffffff16148061069b575061069a85610695610dd5565b610a75565b5b6106da576040517f08c379a00000000000000000000000000000000000000000000000000000000081526004016106d1906122f7565b60405180910390fd5b6106e78585858585610ddd565b5050505050565b60008054906101000a900473ffffffffffffffffffffffffffffffffffffffff1681565b60608151835114610758576040517f08c379a000000000000000000000000000000000000000000000000000000000815260040161074f906122b7565b60405180910390fd5b6000835167ffffffffffffffff81111561079b577f4e487b7100000000000000000000000000000000000000000000000000000000600052604160045260246000fd5b6040519080825280602002602001820160405280156107c95781602001602082028036833780820191505090505b50905060005b84518110156108b857610862858281518110610814577f4e487b7100000000000000000000000000000000000000000000000000000000600052603260045260246000fd5b6020026020010151858381518110610855577f4e487b7100000000000000000000000000000000000000000000000000000000600052603260045260246000fd5b6020026020010151610296565b82828151811061089b577f4e487b7100000000000000000000000000000000000000000000000000000000600052603260045260246000fd5b602002602001018181525050806108b1906126fd565b90506107cf565b508091505092915050565b6000806108cf83610a58565b119050919050565b8173ffffffffffffffffffffffffffffffffffffffff166108f6610dd5565b73ffffffffffffffffffffffffffffffffffffffff16141561094d576040517f08c379a0000000000000000000000000000000000000000000000000000000008152600401610944906123b7565b60405180910390fd5b806002600061095a610dd5565b73ffffffffffffffffffffffffffffffffffffffff1673ffffffffffffffffffffffffffffffffffffffff16815260200190815260200160002060008473ffffffffffffffffffffffffffffffffffffffff1673ffffffffffffffffffffffffffffffffffffffff16815260200190815260200160002060006101000a81548160ff0219169083151502179055508173ffffffffffffffffffffffffffffffffffffffff16610a07610dd5565b73ffffffffffffffffffffffffffffffffffffffff167f17307eab39ab6107e8899845ad3d59bd9653f200f220920489ca2b5937696c3183604051610a4c919061221a565b60405180910390a35050565b600060036000838152602001908152602001600020549050919050565b6000600260008473ffffffffffffffffffffffffffffffffffffffff1673ffffffffffffffffffffffffffffffffffffffff16815260200190815260200160002060008373ffffffffffffffffffffffffffffffffffffffff1673ffffffffffffffffffffffffffffffffffffffff16815260200190815260200160002060009054906101000a900460ff16905092915050565b610b11610dd5565b73ffffffffffffffffffffffffffffffffffffffff168573ffffffffffffffffffffffffffffffffffffffff161480610b575750610b5685610b51610dd5565b610a75565b5b610b96576040517f08c379a0000000000000000000000000000000000000000000000000000000008152600401610b8d90612397565b60405180910390fd5b610ba38585858585611149565b5050505050565b60007f01ffc9a7000000000000000000000000000000000000000000000000000000007bffffffffffffffffffffffffffffffffffffffffffffffffffffffff1916827bffffffffffffffffffffffffffffffffffffffffffffffffffffffff1916149050919050565b600073ffffffffffffffffffffffffffffffffffffffff168473ffffffffffffffffffffffffffffffffffffffff161415610c84576040517f08c379a0000000000000000000000000000000000000000000000000000000008152600401610c7b90612337565b60405180910390fd5b6000610c8e610dd5565b9050610caf81600087610ca0886113d7565b610ca9886113d7565b8761149d565b826001600086815260200190815260200160002060008773ffffffffffffffffffffffffffffffffffffffff1673ffffffffffffffffffffffffffffffffffffffff1681526020019081526020016000206000828254610d0f919061255a565b9250508190555082600360008681526020019081526020016000206000828254610d39919061255a565b925050819055508473ffffffffffffffffffffffffffffffffffffffff16600073ffffffffffffffffffffffffffffffffffffffff168273ffffffffffffffffffffffffffffffffffffffff167fc3d58168c5ae7397731d063d5bbf3d657854427343f4c083240f7aacaa2d0f628787604051610db7929190612412565b60405180910390a4610dce816000878787876114a5565b5050505050565b600033905090565b8151835114610e21576040517f08c379a0000000000000000000000000000000000000000000000000000000008152600401610e1890612317565b60405180910390fd5b600073ffffffffffffffffffffffffffffffffffffffff168473ffffffffffffffffffffffffffffffffffffffff161415610e91576040517f08c379a0000000000000000000000000000000000000000000000000000000008152600401610e8890612297565b60405180910390fd5b6000610e9b610dd5565b9050610eab81878787878761149d565b60005b84518110156110b4576000858281518110610ef2577f4e487b7100000000000000000000000000000000000000000000000000000000600052603260045260246000fd5b602002602001015190506000858381518110610f37577f4e487b7100000000000000000000000000000000000000000000000000000000600052603260045260246000fd5b6020026020010151905060006001600084815260200190815260200160002060008b73ffffffffffffffffffffffffffffffffffffffff1673ffffffffffffffffffffffffffffffffffffffff16815260200190815260200160002054905081811015610fd9576040517f08c379a0000000000000000000000000000000000000000000000000000000008152600401610fd0906123d7565b60405180910390fd5b8181610fe591906125b0565b6001600085815260200190815260200160002060008c73ffffffffffffffffffffffffffffffffffffffff1673ffffffffffffffffffffffffffffffffffffffff16815260200190815260200160002081905550816001600085815260200190815260200160002060008b73ffffffffffffffffffffffffffffffffffffffff1673ffffffffffffffffffffffffffffffffffffffff1681526020019081526020016000206000828254611099919061255a565b92505081905550505050806110ad906126fd565b9050610eae565b508473ffffffffffffffffffffffffffffffffffffffff168673ffffffffffffffffffffffffffffffffffffffff168273ffffffffffffffffffffffffffffffffffffffff167f4a39dc06d4c0dbc64b70af90fd698a233a518aa5d07e595d983b8c0526c8f7fb878760405161112b9291906121e3565b60405180910390a461114181878787878761168c565b505050505050565b600073ffffffffffffffffffffffffffffffffffffffff168473ffffffffffffffffffffffffffffffffffffffff1614156111b9576040517f08c379a00000000000000000000000000000000000000000000000000000000081526004016111b090612297565b60405180910390fd5b60006111c3610dd5565b90506111e38187876111d4886113d7565b6111dd886113d7565b8761149d565b60006001600086815260200190815260200160002060008873ffffffffffffffffffffffffffffffffffffffff1673ffffffffffffffffffffffffffffffffffffffff1681526020019081526020016000205490508381101561127b576040517f08c379a0000000000000000000000000000000000000000000000000000000008152600401611272906123d7565b60405180910390fd5b838161128791906125b0565b6001600087815260200190815260200160002060008973ffffffffffffffffffffffffffffffffffffffff1673ffffffffffffffffffffffffffffffffffffffff16815260200190815260200160002081905550836001600087815260200190815260200160002060008873ffffffffffffffffffffffffffffffffffffffff1673ffffffffffffffffffffffffffffffffffffffff168152602001908152602001600020600082825461133b919061255a565b925050819055508573ffffffffffffffffffffffffffffffffffffffff168773ffffffffffffffffffffffffffffffffffffffff168373ffffffffffffffffffffffffffffffffffffffff167fc3d58168c5ae7397731d063d5bbf3d657854427343f4c083240f7aacaa2d0f6288886040516113b8929190612412565b60405180910390a46113ce8288888888886114a5565b50505050505050565b60606000600167ffffffffffffffff81111561141c577f4e487b7100000000000000000000000000000000000000000000000000000000600052604160045260246000fd5b60405190808252806020026020018201604052801561144a5781602001602082028036833780820191505090505b5090508281600081518110611488577f4e487b7100000000000000000000000000000000000000000000000000000000600052603260045260246000fd5b60200260200101818152505080915050919050565b505050505050565b6114c48473ffffffffffffffffffffffffffffffffffffffff16611873565b15611684578373ffffffffffffffffffffffffffffffffffffffff16636ab8b95b87878686866040518663ffffffff1660e01b815260040161150a959493929190612167565b602060405180830381600087803b15801561152457600080fd5b505af192505050801561155557506040513d601f19601f820116820180604052508101906115529190611da7565b60015b6115fb576115616127d3565b806308c379a014156115be5750611576612bf0565b8061158157506115c0565b806040517f08c379a00000000000000000000000000000000000000000000000000000000081526004016115b59190612235565b60405180910390fd5b505b6040517f08c379a00000000000000000000000000000000000000000000000000000000081526004016115f290612257565b60405180910390fd5b636ab8b95b60e01b7bffffffffffffffffffffffffffffffffffffffffffffffffffffffff1916817bffffffffffffffffffffffffffffffffffffffffffffffffffffffff191614611682576040517f08c379a000000000000000000000000000000000000000000000000000000000815260040161167990612357565b60405180910390fd5b505b505050505050565b6116ab8473ffffffffffffffffffffffffffffffffffffffff16611873565b1561186b578373ffffffffffffffffffffffffffffffffffffffff166393ce05b087878686866040518663ffffffff1660e01b81526004016116f19594939291906120ff565b602060405180830381600087803b15801561170b57600080fd5b505af192505050801561173c57506040513d601f19601f820116820180604052508101906117399190611da7565b60015b6117e2576117486127d3565b806308c379a014156117a5575061175d612bf0565b8061176857506117a7565b806040517f08c379a000000000000000000000000000000000000000000000000000000000815260040161179c9190612235565b60405180910390fd5b505b6040517f08c379a00000000000000000000000000000000000000000000000000000000081526004016117d990612257565b60405180910390fd5b6393ce05b060e01b7bffffffffffffffffffffffffffffffffffffffffffffffffffffffff1916817bffffffffffffffffffffffffffffffffffffffffffffffffffffffff191614611869576040517f08c379a000000000000000000000000000000000000000000000000000000000815260040161186090612357565b60405180910390fd5b505b505050505050565b600080823b905060008111915050919050565b600061189961189484612460565b61243b565b905080838252602082019050828560208602820111156118b857600080fd5b60005b858110156118e857816118ce888261199c565b8452602084019350602083019250506001810190506118bb565b5050509392505050565b60006119056119008461248c565b61243b565b9050808382526020820190508285602086028201111561192457600080fd5b60005b85811015611954578161193a8882611a83565b845260208401935060208301925050600181019050611927565b5050509392505050565b600061197161196c846124b8565b61243b565b90508281526020810184848401111561198957600080fd5b611994848285612658565b509392505050565b6000813590506119ab81612c86565b92915050565b600082601f8301126119c257600080fd5b81356119d2848260208601611886565b91505092915050565b600082601f8301126119ec57600080fd5b81356119fc8482602086016118f2565b91505092915050565b600081359050611a1481612c9d565b92915050565b600081519050611a2981612c9d565b92915050565b600081359050611a3e81612cb4565b92915050565b600081519050611a5381612cb4565b92915050565b600082601f830112611a6a57600080fd5b8135611a7a84826020860161195e565b91505092915050565b600081359050611a9281612ccb565b92915050565b60008060408385031215611aab57600080fd5b6000611ab98582860161199c565b9250506020611aca8582860161199c565b9150509250929050565b600080600080600060a08688031215611aec57600080fd5b6000611afa8882890161199c565b9550506020611b0b8882890161199c565b945050604086013567ffffffffffffffff811115611b2857600080fd5b611b34888289016119db565b935050606086013567ffffffffffffffff811115611b5157600080fd5b611b5d888289016119db565b925050608086013567ffffffffffffffff811115611b7a57600080fd5b611b8688828901611a59565b9150509295509295909350565b600080600080600060a08688031215611bab57600080fd5b6000611bb98882890161199c565b9550506020611bca8882890161199c565b9450506040611bdb88828901611a83565b9350506060611bec88828901611a83565b925050608086013567ffffffffffffffff811115611c0957600080fd5b611c1588828901611a59565b9150509295509295909350565b60008060408385031215611c3557600080fd5b6000611c438582860161199c565b9250506020611c5485828601611a05565b9150509250929050565b60008060408385031215611c7157600080fd5b6000611c7f8582860161199c565b9250506020611c9085828601611a83565b9150509250929050565b600080600060608486031215611caf57600080fd5b6000611cbd8682870161199c565b9350506020611cce86828701611a83565b9250506040611cdf86828701611a83565b9150509250925092565b60008060408385031215611cfc57600080fd5b600083013567ffffffffffffffff811115611d1657600080fd5b611d22858286016119b1565b925050602083013567ffffffffffffffff811115611d3f57600080fd5b611d4b858286016119db565b9150509250929050565b600060208284031215611d6757600080fd5b6000611d7584828501611a1a565b91505092915050565b600060208284031215611d9057600080fd5b6000611d9e84828501611a2f565b91505092915050565b600060208284031215611db957600080fd5b6000611dc784828501611a44565b91505092915050565b600060208284031215611de257600080fd5b6000611df084828501611a83565b91505092915050565b6000611e0583836120c6565b60208301905092915050565b611e1a816125e4565b82525050565b6000611e2b826124f9565b611e358185612527565b9350611e40836124e9565b8060005b83811015611e71578151611e588882611df9565b9750611e638361251a565b925050600181019050611e44565b5085935050505092915050565b611e87816125f6565b82525050565b6000611e9882612504565b611ea28185612538565b9350611eb2818560208601612667565b611ebb816127f5565b840191505092915050565b6000611ed18261250f565b611edb8185612549565b9350611eeb818560208601612667565b611ef4816127f5565b840191505092915050565b6000611f0c603483612549565b9150611f1782612813565b604082019050919050565b6000611f2f602483612549565b9150611f3a82612862565b604082019050919050565b6000611f52602583612549565b9150611f5d826128b1565b604082019050919050565b6000611f75602983612549565b9150611f8082612900565b604082019050919050565b6000611f98602b83612549565b9150611fa38261294f565b604082019050919050565b6000611fbb603283612549565b9150611fc68261299e565b604082019050919050565b6000611fde602883612549565b9150611fe9826129ed565b604082019050919050565b6000612001602183612549565b915061200c82612a3c565b604082019050919050565b6000612024602883612549565b915061202f82612a8b565b604082019050919050565b6000612047601683612549565b915061205282612ada565b602082019050919050565b600061206a602983612549565b915061207582612b03565b604082019050919050565b600061208d602983612549565b915061209882612b52565b604082019050919050565b60006120b0602a83612549565b91506120bb82612ba1565b604082019050919050565b6120cf8161264e565b82525050565b6120de8161264e565b82525050565b60006020820190506120f96000830184611e11565b92915050565b600060a0820190506121146000830188611e11565b6121216020830187611e11565b81810360408301526121338186611e20565b905081810360608301526121478185611e20565b9050818103608083015261215b8184611e8d565b90509695505050505050565b600060a08201905061217c6000830188611e11565b6121896020830187611e11565b61219660408301866120d5565b6121a360608301856120d5565b81810360808301526121b58184611e8d565b90509695505050505050565b600060208201905081810360008301526121db8184611e20565b905092915050565b600060408201905081810360008301526121fd8185611e20565b905081810360208301526122118184611e20565b90509392505050565b600060208201905061222f6000830184611e7e565b92915050565b6000602082019050818103600083015261224f8184611ec6565b905092915050565b6000602082019050818103600083015261227081611eff565b9050919050565b6000602082019050818103600083015261229081611f22565b9050919050565b600060208201905081810360008301526122b081611f45565b9050919050565b600060208201905081810360008301526122d081611f68565b9050919050565b600060208201905081810360008301526122f081611f8b565b9050919050565b6000602082019050818103600083015261231081611fae565b9050919050565b6000602082019050818103600083015261233081611fd1565b9050919050565b6000602082019050818103600083015261235081611ff4565b9050919050565b6000602082019050818103600083015261237081612017565b9050919050565b600060208201905081810360008301526123908161203a565b9050919050565b600060208201905081810360008301526123b08161205d565b9050919050565b600060208201905081810360008301526123d081612080565b9050919050565b600060208201905081810360008301526123f0816120a3565b9050919050565b600060208201905061240c60008301846120d5565b92915050565b600060408201905061242760008301856120d5565b61243460208301846120d5565b9392505050565b6000612445612456565b905061245182826126cc565b919050565b6000604051905090565b600067ffffffffffffffff82111561247b5761247a6127a4565b5b602082029050602081019050919050565b600067ffffffffffffffff8211156124a7576124a66127a4565b5b602082029050602081019050919050565b600067ffffffffffffffff8211156124d3576124d26127a4565b5b6124dc826127f5565b9050602081019050919050565b6000819050602082019050919050565b600081519050919050565b600081519050919050565b600081519050919050565b6000602082019050919050565b600082825260208201905092915050565b600082825260208201905092915050565b600082825260208201905092915050565b60006125658261264e565b91506125708361264e565b9250827fffffffffffffffffffffffffffffffffffffffffffffffffffffffffffffffff038211156125a5576125a4612746565b5b828201905092915050565b60006125bb8261264e565b91506125c68361264e565b9250828210156125d9576125d8612746565b5b828203905092915050565b60006125ef8261262e565b9050919050565b60008115159050919050565b60007fffffffff0000000000000000000000000000000000000000000000000000000082169050919050565b600073ffffffffffffffffffffffffffffffffffffffff82169050919050565b6000819050919050565b82818337600083830152505050565b60005b8381101561268557808201518184015260208101905061266a565b83811115612694576000848401525b50505050565b600060028204905060018216806126b257607f821691505b602082108114156126c6576126c5612775565b5b50919050565b6126d5826127f5565b810181811067ffffffffffffffff821117156126f4576126f36127a4565b5b80604052505050565b60006127088261264e565b91507fffffffffffffffffffffffffffffffffffffffffffffffffffffffffffffffff82141561273b5761273a612746565b5b600182019050919050565b7f4e487b7100000000000000000000000000000000000000000000000000000000600052601160045260246000fd5b7f4e487b7100000000000000000000000000000000000000000000000000000000600052602260045260246000fd5b7f4e487b7100000000000000000000000000000000000000000000000000000000600052604160045260246000fd5b600060033d11156127f25760046000803e6127ef600051612806565b90505b90565b6000601f19601f8301169050919050565b60008160e01c9050919050565b7f424550313135353a207472616e7366657220746f206e6f6e204245503131353560008201527f526563656976657220696d706c656d656e746572000000000000000000000000602082015250565b7f44414f3a206d696e7465722073686f756c642062652076616c6964206d65726360008201527f68616e7400000000000000000000000000000000000000000000000000000000602082015250565b7f424550313135353a207472616e7366657220746f20746865207a65726f20616460008201527f6472657373000000000000000000000000000000000000000000000000000000602082015250565b7f424550313135353a206163636f756e747320616e6420696473206c656e67746860008201527f206d69736d617463680000000000000000000000000000000000000000000000602082015250565b7f424550313135353a2062616c616e636520717565727920666f7220746865207a60008201527f65726f2061646472657373000000000000000000000000000000000000000000602082015250565b7f424550313135353a207472616e736665722063616c6c6572206973206e6f742060008201527f6f776e6572206e6f7220617070726f7665640000000000000000000000000000602082015250565b7f424550313135353a2069647320616e6420616d6f756e7473206c656e6774682060008201527f6d69736d61746368000000000000000000000000000000000000000000000000602082015250565b7f424550313135353a206d696e7420746f20746865207a65726f2061646472657360008201527f7300000000000000000000000000000000000000000000000000000000000000602082015250565b7f424550313135353a204245503131353552656365697665722072656a6563746560008201527f6420746f6b656e73000000000000000000000000000000000000000000000000602082015250565b7f424550313135353a20746f6b656e496420657869747300000000000000000000600082015250565b7f424550313135353a2063616c6c6572206973206e6f74206f776e6572206e6f7260008201527f20617070726f7665640000000000000000000000000000000000000000000000602082015250565b7f424550313135353a2073657474696e6720617070726f76616c2073746174757360008201527f20666f722073656c660000000000000000000000000000000000000000000000602082015250565b7f424550313135353a20696e73756666696369656e742062616c616e636520666f60008201527f72207472616e7366657200000000000000000000000000000000000000000000602082015250565b600060443d1015612c0057612c83565b612c08612456565b60043d036004823e80513d602482011167ffffffffffffffff82111715612c30575050612c83565b808201805167ffffffffffffffff811115612c4e5750505050612c83565b80602083010160043d038501811115612c6b575050505050612c83565b612c7a826020018501866126cc565b82955050505050505b90565b612c8f816125e4565b8114612c9a57600080fd5b50565b612ca6816125f6565b8114612cb157600080fd5b50565b612cbd81612602565b8114612cc857600080fd5b50565b612cd48161264e565b8114612cdf57600080fd5b5056fea2646970667358221220910bf599d3543f02b15c0f8edb3af50f5194b21b9f04ad922293dfb693fb682b64736f6c63430008040033",
  "linkReferences": {},
  "deployedLinkReferences": {}
}