{
  "_format": "hh-sol-artifact-1",
  "contractName": "DAO",
  "sourceName": "contracts/DAO.sol",
  "abi": [
    {
      "inputs": [
        {
          "internalType": "address",
          "name": "_tokenContract",
          "type": "address"
        }
      ],
      "stateMutability": "nonpayable",
      "type": "constructor"
    },
    {
      "inputs": [
        {
          "internalType": "string",
          "name": "hash",
          "type": "string"
        },
        {
          "internalType": "uint8",
          "name": "listingFee",
          "type": "uint8"
        },
        {
          "internalType": "uint8",
          "name": "platformTax",
          "type": "uint8"
        }
      ],
      "name": "createMerchant",
      "outputs": [
        {
          "internalType": "bool",
          "name": "",
          "type": "bool"
        }
      ],
      "stateMutability": "nonpayable",
      "type": "function"
    },
    {
      "inputs": [
        {
          "internalType": "address",
          "name": "_merchantAddress",
          "type": "address"
        }
      ],
      "name": "isMerchant",
      "outputs": [
        {
          "internalType": "bool",
          "name": "",
          "type": "bool"
        }
      ],
      "stateMutability": "view",
      "type": "function"
    },
    {
      "inputs": [
        {
          "internalType": "uint256",
          "name": "proposalId",
          "type": "uint256"
        }
      ],
      "name": "proposal",
      "outputs": [
        {
          "internalType": "string",
          "name": "hash",
          "type": "string"
        },
        {
          "internalType": "address",
          "name": "merchant",
          "type": "address"
        },
        {
          "internalType": "uint256",
          "name": "totalVotes",
          "type": "uint256"
        },
        {
          "internalType": "bool",
          "name": "approved",
          "type": "bool"
        }
      ],
      "stateMutability": "view",
      "type": "function"
    },
    {
      "inputs": [],
      "name": "totalMerchants",
      "outputs": [
        {
          "internalType": "uint256",
          "name": "",
          "type": "uint256"
        }
      ],
      "stateMutability": "view",
      "type": "function"
    },
    {
      "inputs": [],
      "name": "totalProposals",
      "outputs": [
        {
          "internalType": "uint256",
          "name": "",
          "type": "uint256"
        }
      ],
      "stateMutability": "view",
      "type": "function"
    },
    {
      "inputs": [
        {
          "internalType": "address",
          "name": "_newTokenContract",
          "type": "address"
        }
      ],
      "name": "updateTokenContract",
      "outputs": [
        {
          "internalType": "bool",
          "name": "",
          "type": "bool"
        }
      ],
      "stateMutability": "nonpayable",
      "type": "function"
    },
    {
      "inputs": [
        {
          "internalType": "uint256",
          "name": "proposalId",
          "type": "uint256"
        }
      ],
      "name": "vote",
      "outputs": [
        {
          "internalType": "bool",
          "name": "",
          "type": "bool"
        }
      ],
      "stateMutability": "nonpayable",
      "type": "function"
    }
  ],
  "bytecode": "0x60806040523480156200001157600080fd5b50604051620012c4380380620012c48339818101604052810190620000379190620000ed565b806000806101000a81548173ffffffffffffffffffffffffffffffffffffffff021916908373ffffffffffffffffffffffffffffffffffffffff16021790555062000087620000ce60201b60201c565b600160006101000a81548173ffffffffffffffffffffffffffffffffffffffff021916908373ffffffffffffffffffffffffffffffffffffffff1602179055505062000167565b600033905090565b600081519050620000e7816200014d565b92915050565b6000602082840312156200010057600080fd5b60006200011084828501620000d6565b91505092915050565b600062000126826200012d565b9050919050565b600073ffffffffffffffffffffffffffffffffffffffff82169050919050565b620001588162000119565b81146200016457600080fd5b50565b61114d80620001776000396000f3fe608060405234801561001057600080fd5b506004361061007d5760003560e01c8063487b55f41161005b578063487b55f4146101155780634d64266914610133578063989ced2614610163578063a78d80fc146101935761007d565b80630121b93f146100825780631a2f7167146100b257806330326c17146100e2575b600080fd5b61009c60048036038101906100979190610ac1565b6101b1565b6040516100a99190610c20565b60405180910390f35b6100cc60048036038101906100c79190610a31565b6104f9565b6040516100d99190610c20565b60405180910390f35b6100fc60048036038101906100f79190610ac1565b61054f565b60405161010c9493929190610c3b565b60405180910390f35b61011d610699565b60405161012a9190610d07565b60405180910390f35b61014d60048036038101906101489190610a5a565b6106a3565b60405161015a9190610c20565b60405180910390f35b61017d60048036038101906101789190610a31565b610806565b60405161018a9190610c20565b60405180910390f35b61019b6108c0565b6040516101a89190610d07565b60405180910390f35b60008060008054906101000a900473ffffffffffffffffffffffffffffffffffffffff1673ffffffffffffffffffffffffffffffffffffffff166370a082316101f86108ca565b6040518263ffffffff1660e01b81526004016102149190610c05565b60206040518083038186803b15801561022c57600080fd5b505afa158015610240573d6000803e3d6000fd5b505050506040513d601f19601f820116820180604052508101906102649190610aea565b905060008060009054906101000a900473ffffffffffffffffffffffffffffffffffffffff1673ffffffffffffffffffffffffffffffffffffffff166318160ddd6040518163ffffffff1660e01b815260040160206040518083038186803b1580156102cf57600080fd5b505afa1580156102e3573d6000803e3d6000fd5b505050506040513d601f19601f820116820180604052508101906103079190610aea565b90506000821161034c576040517f08c379a000000000000000000000000000000000000000000000000000000000815260040161034390610cc7565b60405180910390fd5b60008411801561035e57506003548411155b61039d576040517f08c379a000000000000000000000000000000000000000000000000000000000815260040161039490610ce7565b60405180910390fd5b60006005600086815260200190815260200160002090508060030160009054906101000a900460ff1615610406576040517f08c379a00000000000000000000000000000000000000000000000000000000081526004016103fd90610ca7565b60405180910390fd5b8281600201600082825461041a9190610d94565b9250508190555060028261042e9190610dea565b816002015411156104ed5760018160030160006101000a81548160ff0219169083151502179055506001600260008282546104699190610d94565b925050819055506001600460008360010160009054906101000a900473ffffffffffffffffffffffffffffffffffffffff1673ffffffffffffffffffffffffffffffffffffffff1673ffffffffffffffffffffffffffffffffffffffff16815260200190815260200160002060006101000a81548160ff0219169083151502179055505b60019350505050919050565b6000600460008373ffffffffffffffffffffffffffffffffffffffff1673ffffffffffffffffffffffffffffffffffffffff16815260200190815260200160002060009054906101000a900460ff169050919050565b60606000806000808511801561056757506003548511155b6105a6576040517f08c379a000000000000000000000000000000000000000000000000000000000815260040161059d90610ce7565b60405180910390fd5b6000600560008781526020019081526020016000209050806000018160010160009054906101000a900473ffffffffffffffffffffffffffffffffffffffff1682600201548360030160009054906101000a900460ff1683805461060990610eb2565b80601f016020809104026020016040519081016040528092919081815260200182805461063590610eb2565b80156106825780601f1061065757610100808354040283529160200191610682565b820191906000526020600020905b81548152906001019060200180831161066557829003601f168201915b505050505093509450945094509450509193509193565b6000600254905090565b60006001600360008282546106b89190610d94565b925050819055506040518060c001604052808581526020016106d86108ca565b73ffffffffffffffffffffffffffffffffffffffff1681526020018360ff1681526020018460ff168152602001600081526020016000151581525060056000600354815260200190815260200160002060008201518160000190805190602001906107449291906108d2565b5060208201518160010160006101000a81548173ffffffffffffffffffffffffffffffffffffffff021916908373ffffffffffffffffffffffffffffffffffffffff16021790555060408201518160010160146101000a81548160ff021916908360ff16021790555060608201518160010160156101000a81548160ff021916908360ff1602179055506080820151816002015560a08201518160030160006101000a81548160ff021916908315150217905550905050600190509392505050565b60008073ffffffffffffffffffffffffffffffffffffffff168273ffffffffffffffffffffffffffffffffffffffff161415610877576040517f08c379a000000000000000000000000000000000000000000000000000000000815260040161086e90610c87565b60405180910390fd5b816000806101000a81548173ffffffffffffffffffffffffffffffffffffffff021916908373ffffffffffffffffffffffffffffffffffffffff16021790555060019050919050565b6000600354905090565b600033905090565b8280546108de90610eb2565b90600052602060002090601f0160209004810192826109005760008555610947565b82601f1061091957805160ff1916838001178555610947565b82800160010185558215610947579182015b8281111561094657825182559160200191906001019061092b565b5b5090506109549190610958565b5090565b5b80821115610971576000816000905550600101610959565b5090565b600061098861098384610d47565b610d22565b9050828152602081018484840111156109a057600080fd5b6109ab848285610e70565b509392505050565b6000813590506109c2816110d2565b92915050565b600082601f8301126109d957600080fd5b81356109e9848260208601610975565b91505092915050565b600081359050610a01816110e9565b92915050565b600081519050610a16816110e9565b92915050565b600081359050610a2b81611100565b92915050565b600060208284031215610a4357600080fd5b6000610a51848285016109b3565b91505092915050565b600080600060608486031215610a6f57600080fd5b600084013567ffffffffffffffff811115610a8957600080fd5b610a95868287016109c8565b9350506020610aa686828701610a1c565b9250506040610ab786828701610a1c565b9150509250925092565b600060208284031215610ad357600080fd5b6000610ae1848285016109f2565b91505092915050565b600060208284031215610afc57600080fd5b6000610b0a84828501610a07565b91505092915050565b610b1c81610e1b565b82525050565b610b2b81610e2d565b82525050565b6000610b3c82610d78565b610b468185610d83565b9350610b56818560208601610e7f565b610b5f81610fd1565b840191505092915050565b6000610b77602b83610d83565b9150610b8282610fe2565b604082019050919050565b6000610b9a602083610d83565b9150610ba582611031565b602082019050919050565b6000610bbd602483610d83565b9150610bc88261105a565b604082019050919050565b6000610be0601a83610d83565b9150610beb826110a9565b602082019050919050565b610bff81610e59565b82525050565b6000602082019050610c1a6000830184610b13565b92915050565b6000602082019050610c356000830184610b22565b92915050565b60006080820190508181036000830152610c558187610b31565b9050610c646020830186610b13565b610c716040830185610bf6565b610c7e6060830184610b22565b95945050505050565b60006020820190508181036000830152610ca081610b6a565b9050919050565b60006020820190508181036000830152610cc081610b8d565b9050919050565b60006020820190508181036000830152610ce081610bb0565b9050919050565b60006020820190508181036000830152610d0081610bd3565b9050919050565b6000602082019050610d1c6000830184610bf6565b92915050565b6000610d2c610d3d565b9050610d388282610ee4565b919050565b6000604051905090565b600067ffffffffffffffff821115610d6257610d61610fa2565b5b610d6b82610fd1565b9050602081019050919050565b600081519050919050565b600082825260208201905092915050565b6000610d9f82610e59565b9150610daa83610e59565b9250827fffffffffffffffffffffffffffffffffffffffffffffffffffffffffffffffff03821115610ddf57610dde610f15565b5b828201905092915050565b6000610df582610e59565b9150610e0083610e59565b925082610e1057610e0f610f44565b5b828204905092915050565b6000610e2682610e39565b9050919050565b60008115159050919050565b600073ffffffffffffffffffffffffffffffffffffffff82169050919050565b6000819050919050565b600060ff82169050919050565b82818337600083830152505050565b60005b83811015610e9d578082015181840152602081019050610e82565b83811115610eac576000848401525b50505050565b60006002820490506001821680610eca57607f821691505b60208210811415610ede57610edd610f73565b5b50919050565b610eed82610fd1565b810181811067ffffffffffffffff82111715610f0c57610f0b610fa2565b5b80604052505050565b7f4e487b7100000000000000000000000000000000000000000000000000000000600052601160045260246000fd5b7f4e487b7100000000000000000000000000000000000000000000000000000000600052601260045260246000fd5b7f4e487b7100000000000000000000000000000000000000000000000000000000600052602260045260246000fd5b7f4e487b7100000000000000000000000000000000000000000000000000000000600052604160045260246000fd5b6000601f19601f8301169050919050565b7f4572726f723a204e657720746f6b656e20636f6e74726163742063616e206e6560008201527f766572206265207a65726f000000000000000000000000000000000000000000602082015250565b7f4572726f723a2050726f706f73616c20616c726561647920617070726f766564600082015250565b7f4572726f723a20566f7465722073686f756c642068617665205a4e465420536860008201527f6172657300000000000000000000000000000000000000000000000000000000602082015250565b7f4572726f723a20496e76616c69642050726f706f73616c204944000000000000600082015250565b6110db81610e1b565b81146110e657600080fd5b50565b6110f281610e59565b81146110fd57600080fd5b50565b61110981610e63565b811461111457600080fd5b5056fea2646970667358221220653cc4dd0232ef0f768d24abc2b02affe8ac32edb58bfbf6282273e3139ed32c64736f6c63430008040033",
  "linkReferences": {},
  "deployedLinkReferences": {}
}