{
  "_format": "hh-sol-artifact-1",
  "contractName": "BEP165",
  "sourceName": "contracts/BEP165.sol",
  "abi": [
    {
      "inputs": [
        {
          "internalType": "bytes4",
          "name": "interfaceId",
          "type": "bytes4"
        }
      ],
      "name": "supportsInterface",
      "outputs": [
        {
          "internalType": "bool",
          "name": "",
          "type": "bool"
        }
      ],
      "stateMutability": "view",
      "type": "function"
    }
  ],
  "bytecode": "0x608060405234801561001057600080fd5b506101b7806100206000396000f3fe608060405234801561001057600080fd5b506004361061002b5760003560e01c806301ffc9a714610030575b600080fd5b61004a600480360381019061004591906100df565b610060565b6040516100579190610117565b60405180910390f35b60007f01ffc9a7000000000000000000000000000000000000000000000000000000007bffffffffffffffffffffffffffffffffffffffffffffffffffffffff1916827bffffffffffffffffffffffffffffffffffffffffffffffffffffffff1916149050919050565b6000813590506100d98161016a565b92915050565b6000602082840312156100f157600080fd5b60006100ff848285016100ca565b91505092915050565b61011181610132565b82525050565b600060208201905061012c6000830184610108565b92915050565b60008115159050919050565b60007fffffffff0000000000000000000000000000000000000000000000000000000082169050919050565b6101738161013e565b811461017e57600080fd5b5056fea264697066735822122099486867364740950f0e7539baa3757e4704cb6eb1844161108d3000f213f4e964736f6c63430008040033",
  "linkReferences": {},
  "deployedLinkReferences": {}
}